{
  "_format": "hh-sol-artifact-1",
  "contractName": "AgentAccessPass",
  "sourceName": "contracts/AIAgentLeasingDEX.sol",
  "abi": [
    {
      "inputs": [],
      "stateMutability": "nonpayable",
      "type": "constructor"
    },
    {
      "anonymous": false,
      "inputs": [
        {
          "indexed": true,
          "internalType": "address",
          "name": "account",
          "type": "address"
        },
        {
          "indexed": true,
          "internalType": "address",
          "name": "operator",
          "type": "address"
        },
        {
          "indexed": false,
          "internalType": "bool",
          "name": "approved",
          "type": "bool"
        }
      ],
      "name": "ApprovalForAll",
      "type": "event"
    },
    {
      "anonymous": false,
      "inputs": [
        {
          "indexed": true,
          "internalType": "address",
          "name": "previousOwner",
          "type": "address"
        },
        {
          "indexed": true,
          "internalType": "address",
          "name": "newOwner",
          "type": "address"
        }
      ],
      "name": "OwnershipTransferred",
      "type": "event"
    },
    {
      "anonymous": false,
      "inputs": [
        {
          "indexed": true,
          "internalType": "address",
          "name": "operator",
          "type": "address"
        },
        {
          "indexed": true,
          "internalType": "address",
          "name": "from",
          "type": "address"
        },
        {
          "indexed": true,
          "internalType": "address",
          "name": "to",
          "type": "address"
        },
        {
          "indexed": false,
          "internalType": "uint256[]",
          "name": "ids",
          "type": "uint256[]"
        },
        {
          "indexed": false,
          "internalType": "uint256[]",
          "name": "values",
          "type": "uint256[]"
        }
      ],
      "name": "TransferBatch",
      "type": "event"
    },
    {
      "anonymous": false,
      "inputs": [
        {
          "indexed": true,
          "internalType": "address",
          "name": "operator",
          "type": "address"
        },
        {
          "indexed": true,
          "internalType": "address",
          "name": "from",
          "type": "address"
        },
        {
          "indexed": true,
          "internalType": "address",
          "name": "to",
          "type": "address"
        },
        {
          "indexed": false,
          "internalType": "uint256",
          "name": "id",
          "type": "uint256"
        },
        {
          "indexed": false,
          "internalType": "uint256",
          "name": "value",
          "type": "uint256"
        }
      ],
      "name": "TransferSingle",
      "type": "event"
    },
    {
      "anonymous": false,
      "inputs": [
        {
          "indexed": false,
          "internalType": "string",
          "name": "value",
          "type": "string"
        },
        {
          "indexed": true,
          "internalType": "uint256",
          "name": "id",
          "type": "uint256"
        }
      ],
      "name": "URI",
      "type": "event"
    },
    {
      "inputs": [
        {
          "internalType": "address",
          "name": "account",
          "type": "address"
        },
        {
          "internalType": "uint256",
          "name": "id",
          "type": "uint256"
        }
      ],
      "name": "balanceOf",
      "outputs": [
        {
          "internalType": "uint256",
          "name": "",
          "type": "uint256"
        }
      ],
      "stateMutability": "view",
      "type": "function"
    },
    {
      "inputs": [
        {
          "internalType": "address[]",
          "name": "accounts",
          "type": "address[]"
        },
        {
          "internalType": "uint256[]",
          "name": "ids",
          "type": "uint256[]"
        }
      ],
      "name": "balanceOfBatch",
      "outputs": [
        {
          "internalType": "uint256[]",
          "name": "",
          "type": "uint256[]"
        }
      ],
      "stateMutability": "view",
      "type": "function"
    },
    {
      "inputs": [
        {
          "internalType": "address",
          "name": "from",
          "type": "address"
        },
        {
          "internalType": "uint256",
          "name": "agentId",
          "type": "uint256"
        },
        {
          "internalType": "uint256",
          "name": "leaseId",
          "type": "uint256"
        }
      ],
      "name": "burnPass",
      "outputs": [],
      "stateMutability": "nonpayable",
      "type": "function"
    },
    {
      "inputs": [
        {
          "internalType": "uint256",
          "name": "agentId",
          "type": "uint256"
        },
        {
          "internalType": "uint256",
          "name": "leaseId",
          "type": "uint256"
        }
      ],
      "name": "encodeTokenId",
      "outputs": [
        {
          "internalType": "uint256",
          "name": "",
          "type": "uint256"
        }
      ],
      "stateMutability": "pure",
      "type": "function"
    },
    {
      "inputs": [
        {
          "internalType": "uint256",
          "name": "",
          "type": "uint256"
        }
      ],
      "name": "expiryTimestamps",
      "outputs": [
        {
          "internalType": "uint256",
          "name": "",
          "type": "uint256"
        }
      ],
      "stateMutability": "view",
      "type": "function"
    },
    {
      "inputs": [
        {
          "internalType": "address",
          "name": "account",
          "type": "address"
        },
        {
          "internalType": "address",
          "name": "operator",
          "type": "address"
        }
      ],
      "name": "isApprovedForAll",
      "outputs": [
        {
          "internalType": "bool",
          "name": "",
          "type": "bool"
        }
      ],
      "stateMutability": "view",
      "type": "function"
    },
    {
      "inputs": [
        {
          "internalType": "address",
          "name": "user",
          "type": "address"
        },
        {
          "internalType": "uint256",
          "name": "agentId",
          "type": "uint256"
        },
        {
          "internalType": "uint256",
          "name": "leaseId",
          "type": "uint256"
        }
      ],
      "name": "isValid",
      "outputs": [
        {
          "internalType": "bool",
          "name": "",
          "type": "bool"
        }
      ],
      "stateMutability": "view",
      "type": "function"
    },
    {
      "inputs": [
        {
          "internalType": "address",
          "name": "to",
          "type": "address"
        },
        {
          "internalType": "uint256",
          "name": "agentId",
          "type": "uint256"
        },
        {
          "internalType": "uint256",
          "name": "leaseId",
          "type": "uint256"
        },
        {
          "internalType": "uint256",
          "name": "expiresAt",
          "type": "uint256"
        }
      ],
      "name": "mintPass",
      "outputs": [
        {
          "internalType": "uint256",
          "name": "",
          "type": "uint256"
        }
      ],
      "stateMutability": "nonpayable",
      "type": "function"
    },
    {
      "inputs": [],
      "name": "owner",
      "outputs": [
        {
          "internalType": "address",
          "name": "",
          "type": "address"
        }
      ],
      "stateMutability": "view",
      "type": "function"
    },
    {
      "inputs": [],
      "name": "renounceOwnership",
      "outputs": [],
      "stateMutability": "nonpayable",
      "type": "function"
    },
    {
      "inputs": [
        {
          "internalType": "address",
          "name": "from",
          "type": "address"
        },
        {
          "internalType": "address",
          "name": "to",
          "type": "address"
        },
        {
          "internalType": "uint256[]",
          "name": "ids",
          "type": "uint256[]"
        },
        {
          "internalType": "uint256[]",
          "name": "amounts",
          "type": "uint256[]"
        },
        {
          "internalType": "bytes",
          "name": "data",
          "type": "bytes"
        }
      ],
      "name": "safeBatchTransferFrom",
      "outputs": [],
      "stateMutability": "nonpayable",
      "type": "function"
    },
    {
      "inputs": [
        {
          "internalType": "address",
          "name": "from",
          "type": "address"
        },
        {
          "internalType": "address",
          "name": "to",
          "type": "address"
        },
        {
          "internalType": "uint256",
          "name": "id",
          "type": "uint256"
        },
        {
          "internalType": "uint256",
          "name": "amount",
          "type": "uint256"
        },
        {
          "internalType": "bytes",
          "name": "data",
          "type": "bytes"
        }
      ],
      "name": "safeTransferFrom",
      "outputs": [],
      "stateMutability": "nonpayable",
      "type": "function"
    },
    {
      "inputs": [
        {
          "internalType": "address",
          "name": "operator",
          "type": "address"
        },
        {
          "internalType": "bool",
          "name": "approved",
          "type": "bool"
        }
      ],
      "name": "setApprovalForAll",
      "outputs": [],
      "stateMutability": "nonpayable",
      "type": "function"
    },
    {
      "inputs": [
        {
          "internalType": "bytes4",
          "name": "interfaceId",
          "type": "bytes4"
        }
      ],
      "name": "supportsInterface",
      "outputs": [
        {
          "internalType": "bool",
          "name": "",
          "type": "bool"
        }
      ],
      "stateMutability": "view",
      "type": "function"
    },
    {
      "inputs": [
        {
          "internalType": "address",
          "name": "newOwner",
          "type": "address"
        }
      ],
      "name": "transferOwnership",
      "outputs": [],
      "stateMutability": "nonpayable",
      "type": "function"
    },
    {
      "inputs": [
        {
          "internalType": "uint256",
          "name": "",
          "type": "uint256"
        }
      ],
      "name": "uri",
      "outputs": [
        {
          "internalType": "string",
          "name": "",
          "type": "string"
        }
      ],
      "stateMutability": "view",
      "type": "function"
    }
  ],
  "bytecode": "0x60806040523480156200001157600080fd5b506040518060200160405280600081525062000033816200005a60201b60201c565b5062000054620000486200006f60201b60201c565b6200007760201b60201c565b6200049e565b80600290816200006b9190620003b7565b5050565b600033905090565b6000600360009054906101000a900473ffffffffffffffffffffffffffffffffffffffff16905081600360006101000a81548173ffffffffffffffffffffffffffffffffffffffff021916908373ffffffffffffffffffffffffffffffffffffffff1602179055508173ffffffffffffffffffffffffffffffffffffffff168173ffffffffffffffffffffffffffffffffffffffff167f8be0079c531659141344cd1fd0a4f28419497f9722a3daafe3b4186f6b6457e060405160405180910390a35050565b600081519050919050565b7f4e487b7100000000000000000000000000000000000000000000000000000000600052604160045260246000fd5b7f4e487b7100000000000000000000000000000000000000000000000000000000600052602260045260246000fd5b60006002820490506001821680620001bf57607f821691505b602082108103620001d557620001d462000177565b5b50919050565b60008190508160005260206000209050919050565b60006020601f8301049050919050565b600082821b905092915050565b6000600883026200023f7fffffffffffffffffffffffffffffffffffffffffffffffffffffffffffffffff8262000200565b6200024b868362000200565b95508019841693508086168417925050509392505050565b6000819050919050565b6000819050919050565b600062000298620002926200028c8462000263565b6200026d565b62000263565b9050919050565b6000819050919050565b620002b48362000277565b620002cc620002c3826200029f565b8484546200020d565b825550505050565b600090565b620002e3620002d4565b620002f0818484620002a9565b505050565b5b8181101562000318576200030c600082620002d9565b600181019050620002f6565b5050565b601f82111562000367576200033181620001db565b6200033c84620001f0565b810160208510156200034c578190505b620003646200035b85620001f0565b830182620002f5565b50505b505050565b600082821c905092915050565b60006200038c600019846008026200036c565b1980831691505092915050565b6000620003a7838362000379565b9150826002028217905092915050565b620003c2826200013d565b67ffffffffffffffff811115620003de57620003dd62000148565b5b620003ea8254620001a6565b620003f78282856200031c565b600060209050601f8311600181146200042f57600084156200041a578287015190505b62000426858262000399565b86555062000496565b601f1984166200043f86620001db565b60005b82811015620004695784890151825560018201915060208501945060208101905062000442565b8683101562000489578489015162000485601f89168262000379565b8355505b6001600288020188555050505b505050505050565b61330f80620004ae6000396000f3fe608060405234801561001057600080fd5b50600436106100ff5760003560e01c80638a2605a711610097578063e985e9c511610066578063e985e9c5146102d0578063ebd46d6414610300578063f242432a14610330578063f2fde38b1461034c576100ff565b80638a2605a71461024a5780638da5cb5b146102665780639915e8fb14610284578063a22cb465146102b4576100ff565b80632eb2c2d6116100d35780632eb2c2d6146101c4578063318f50c9146101e05780634e1273f414610210578063715018a614610240576100ff565b8062fdd58e1461010457806301ffc9a7146101345780630e89341c1461016457806317ed481514610194575b600080fd5b61011e60048036038101906101199190611cfa565b610368565b60405161012b9190611d49565b60405180910390f35b61014e60048036038101906101499190611dbc565b610430565b60405161015b9190611e04565b60405180910390f35b61017e60048036038101906101799190611e1f565b610512565b60405161018b9190611edc565b60405180910390f35b6101ae60048036038101906101a99190611efe565b6105a6565b6040516101bb9190611d49565b60405180910390f35b6101de60048036038101906101d99190612162565b6106af565b005b6101fa60048036038101906101f59190612231565b610750565b6040516102079190611e04565b60405180910390f35b61022a60048036038101906102259190612347565b610794565b604051610237919061247d565b60405180910390f35b6102486108ad565b005b610264600480360381019061025f9190612231565b6108c1565b005b61026e610902565b60405161027b91906124ae565b60405180910390f35b61029e60048036038101906102999190611e1f565b61092c565b6040516102ab9190611d49565b60405180910390f35b6102ce60048036038101906102c991906124f5565b610944565b005b6102ea60048036038101906102e59190612535565b61095a565b6040516102f79190611e04565b60405180910390f35b61031a60048036038101906103159190612575565b6109ee565b6040516103279190611d49565b60405180910390f35b61034a600480360381019061034591906125b5565b6109ff565b005b6103666004803603810190610361919061264c565b610aa0565b005b60008073ffffffffffffffffffffffffffffffffffffffff168373ffffffffffffffffffffffffffffffffffffffff16036103d8576040517f08c379a00000000000000000000000000000000000000000000000000000000081526004016103cf906126eb565b60405180910390fd5b60008083815260200190815260200160002060008473ffffffffffffffffffffffffffffffffffffffff1673ffffffffffffffffffffffffffffffffffffffff16815260200190815260200160002054905092915050565b60007fd9b67a26000000000000000000000000000000000000000000000000000000007bffffffffffffffffffffffffffffffffffffffffffffffffffffffff1916827bffffffffffffffffffffffffffffffffffffffffffffffffffffffff191614806104fb57507f0e89341c000000000000000000000000000000000000000000000000000000007bffffffffffffffffffffffffffffffffffffffffffffffffffffffff1916827bffffffffffffffffffffffffffffffffffffffffffffffffffffffff1916145b8061050b575061050a82610b23565b5b9050919050565b6060600280546105219061273a565b80601f016020809104026020016040519081016040528092919081815260200182805461054d9061273a565b801561059a5780601f1061056f5761010080835404028352916020019161059a565b820191906000526020600020905b81548152906001019060200180831161057d57829003601f168201915b50505050509050919050565b60006105b0610b8d565b600073ffffffffffffffffffffffffffffffffffffffff168573ffffffffffffffffffffffffffffffffffffffff160361061f576040517f08c379a0000000000000000000000000000000000000000000000000000000008152600401610616906127b7565b60405180910390fd5b428211610661576040517f08c379a000000000000000000000000000000000000000000000000000000000815260040161065890612823565b60405180910390fd5b600061066d85856109ee565b90508260046000838152602001908152602001600020819055506106a38682600160405180602001604052806000815250610c0b565b80915050949350505050565b6106b7610dbb565b73ffffffffffffffffffffffffffffffffffffffff168573ffffffffffffffffffffffffffffffffffffffff1614806106fd57506106fc856106f7610dbb565b61095a565b5b61073c576040517f08c379a0000000000000000000000000000000000000000000000000000000008152600401610733906128b5565b60405180910390fd5b6107498585858585610dc3565b5050505050565b60008061075d84846109ee565b9050600061076b8683610368565b11801561078a5750426004600083815260200190815260200160002054115b9150509392505050565b606081518351146107da576040517f08c379a00000000000000000000000000000000000000000000000000000000081526004016107d190612947565b60405180910390fd5b6000835167ffffffffffffffff8111156107f7576107f6611f6a565b5b6040519080825280602002602001820160405280156108255781602001602082028036833780820191505090505b50905060005b84518110156108a25761087285828151811061084a57610849612967565b5b602002602001015185838151811061086557610864612967565b5b6020026020010151610368565b82828151811061088557610884612967565b5b6020026020010181815250508061089b906129c5565b905061082b565b508091505092915050565b6108b5610b8d565b6108bf60006110e4565b565b6108c9610b8d565b60006108d583836109ee565b9050600060046000838152602001908152602001600020819055506108fc848260016111aa565b50505050565b6000600360009054906101000a900473ffffffffffffffffffffffffffffffffffffffff16905090565b60046020528060005260406000206000915090505481565b61095661094f610dbb565b83836113f0565b5050565b6000600160008473ffffffffffffffffffffffffffffffffffffffff1673ffffffffffffffffffffffffffffffffffffffff16815260200190815260200160002060008373ffffffffffffffffffffffffffffffffffffffff1673ffffffffffffffffffffffffffffffffffffffff16815260200190815260200160002060009054906101000a900460ff16905092915050565b600081608084901b17905092915050565b610a07610dbb565b73ffffffffffffffffffffffffffffffffffffffff168573ffffffffffffffffffffffffffffffffffffffff161480610a4d5750610a4c85610a47610dbb565b61095a565b5b610a8c576040517f08c379a0000000000000000000000000000000000000000000000000000000008152600401610a83906128b5565b60405180910390fd5b610a99858585858561155c565b5050505050565b610aa8610b8d565b600073ffffffffffffffffffffffffffffffffffffffff168173ffffffffffffffffffffffffffffffffffffffff1603610b17576040517f08c379a0000000000000000000000000000000000000000000000000000000008152600401610b0e90612a7f565b60405180910390fd5b610b20816110e4565b50565b60007f01ffc9a7000000000000000000000000000000000000000000000000000000007bffffffffffffffffffffffffffffffffffffffffffffffffffffffff1916827bffffffffffffffffffffffffffffffffffffffffffffffffffffffff1916149050919050565b610b95610dbb565b73ffffffffffffffffffffffffffffffffffffffff16610bb3610902565b73ffffffffffffffffffffffffffffffffffffffff1614610c09576040517f08c379a0000000000000000000000000000000000000000000000000000000008152600401610c0090612aeb565b60405180910390fd5b565b600073ffffffffffffffffffffffffffffffffffffffff168473ffffffffffffffffffffffffffffffffffffffff1603610c7a576040517f08c379a0000000000000000000000000000000000000000000000000000000008152600401610c7190612b7d565b60405180910390fd5b6000610c84610dbb565b90506000610c91856117f7565b90506000610c9e856117f7565b9050610caf83600089858589611871565b8460008088815260200190815260200160002060008973ffffffffffffffffffffffffffffffffffffffff1673ffffffffffffffffffffffffffffffffffffffff1681526020019081526020016000206000828254610d0e9190612b9d565b925050819055508673ffffffffffffffffffffffffffffffffffffffff16600073ffffffffffffffffffffffffffffffffffffffff168473ffffffffffffffffffffffffffffffffffffffff167fc3d58168c5ae7397731d063d5bbf3d657854427343f4c083240f7aacaa2d0f628989604051610d8c929190612bd1565b60405180910390a4610da383600089858589611879565b610db283600089898989611881565b50505050505050565b600033905090565b8151835114610e07576040517f08c379a0000000000000000000000000000000000000000000000000000000008152600401610dfe90612c6c565b60405180910390fd5b600073ffffffffffffffffffffffffffffffffffffffff168473ffffffffffffffffffffffffffffffffffffffff1603610e76576040517f08c379a0000000000000000000000000000000000000000000000000000000008152600401610e6d90612cfe565b60405180910390fd5b6000610e80610dbb565b9050610e90818787878787611871565b60005b8451811015611041576000858281518110610eb157610eb0612967565b5b602002602001015190506000858381518110610ed057610ecf612967565b5b60200260200101519050600080600084815260200190815260200160002060008b73ffffffffffffffffffffffffffffffffffffffff1673ffffffffffffffffffffffffffffffffffffffff16815260200190815260200160002054905081811015610f71576040517f08c379a0000000000000000000000000000000000000000000000000000000008152600401610f6890612d90565b60405180910390fd5b81810360008085815260200190815260200160002060008c73ffffffffffffffffffffffffffffffffffffffff1673ffffffffffffffffffffffffffffffffffffffff168152602001908152602001600020819055508160008085815260200190815260200160002060008b73ffffffffffffffffffffffffffffffffffffffff1673ffffffffffffffffffffffffffffffffffffffff16815260200190815260200160002060008282546110269190612b9d565b925050819055505050508061103a906129c5565b9050610e93565b508473ffffffffffffffffffffffffffffffffffffffff168673ffffffffffffffffffffffffffffffffffffffff168273ffffffffffffffffffffffffffffffffffffffff167f4a39dc06d4c0dbc64b70af90fd698a233a518aa5d07e595d983b8c0526c8f7fb87876040516110b8929190612db0565b60405180910390a46110ce818787878787611879565b6110dc818787878787611a58565b505050505050565b6000600360009054906101000a900473ffffffffffffffffffffffffffffffffffffffff16905081600360006101000a81548173ffffffffffffffffffffffffffffffffffffffff021916908373ffffffffffffffffffffffffffffffffffffffff1602179055508173ffffffffffffffffffffffffffffffffffffffff168173ffffffffffffffffffffffffffffffffffffffff167f8be0079c531659141344cd1fd0a4f28419497f9722a3daafe3b4186f6b6457e060405160405180910390a35050565b600073ffffffffffffffffffffffffffffffffffffffff168373ffffffffffffffffffffffffffffffffffffffff1603611219576040517f08c379a000000000000000000000000000000000000000000000000000000000815260040161121090612e59565b60405180910390fd5b6000611223610dbb565b90506000611230846117f7565b9050600061123d846117f7565b905061125d83876000858560405180602001604052806000815250611871565b600080600087815260200190815260200160002060008873ffffffffffffffffffffffffffffffffffffffff1673ffffffffffffffffffffffffffffffffffffffff168152602001908152602001600020549050848110156112f4576040517f08c379a00000000000000000000000000000000000000000000000000000000081526004016112eb90612eeb565b60405180910390fd5b84810360008088815260200190815260200160002060008973ffffffffffffffffffffffffffffffffffffffff1673ffffffffffffffffffffffffffffffffffffffff16815260200190815260200160002081905550600073ffffffffffffffffffffffffffffffffffffffff168773ffffffffffffffffffffffffffffffffffffffff168573ffffffffffffffffffffffffffffffffffffffff167fc3d58168c5ae7397731d063d5bbf3d657854427343f4c083240f7aacaa2d0f6289896040516113c1929190612bd1565b60405180910390a46113e784886000868660405180602001604052806000815250611879565b50505050505050565b8173ffffffffffffffffffffffffffffffffffffffff168373ffffffffffffffffffffffffffffffffffffffff160361145e576040517f08c379a000000000000000000000000000000000000000000000000000000000815260040161145590612f7d565b60405180910390fd5b80600160008573ffffffffffffffffffffffffffffffffffffffff1673ffffffffffffffffffffffffffffffffffffffff16815260200190815260200160002060008473ffffffffffffffffffffffffffffffffffffffff1673ffffffffffffffffffffffffffffffffffffffff16815260200190815260200160002060006101000a81548160ff0219169083151502179055508173ffffffffffffffffffffffffffffffffffffffff168373ffffffffffffffffffffffffffffffffffffffff167f17307eab39ab6107e8899845ad3d59bd9653f200f220920489ca2b5937696c318360405161154f9190611e04565b60405180910390a3505050565b600073ffffffffffffffffffffffffffffffffffffffff168473ffffffffffffffffffffffffffffffffffffffff16036115cb576040517f08c379a00000000000000000000000000000000000000000000000000000000081526004016115c290612cfe565b60405180910390fd5b60006115d5610dbb565b905060006115e2856117f7565b905060006115ef856117f7565b90506115ff838989858589611871565b600080600088815260200190815260200160002060008a73ffffffffffffffffffffffffffffffffffffffff1673ffffffffffffffffffffffffffffffffffffffff16815260200190815260200160002054905085811015611696576040517f08c379a000000000000000000000000000000000000000000000000000000000815260040161168d90612d90565b60405180910390fd5b85810360008089815260200190815260200160002060008b73ffffffffffffffffffffffffffffffffffffffff1673ffffffffffffffffffffffffffffffffffffffff168152602001908152602001600020819055508560008089815260200190815260200160002060008a73ffffffffffffffffffffffffffffffffffffffff1673ffffffffffffffffffffffffffffffffffffffff168152602001908152602001600020600082825461174b9190612b9d565b925050819055508773ffffffffffffffffffffffffffffffffffffffff168973ffffffffffffffffffffffffffffffffffffffff168573ffffffffffffffffffffffffffffffffffffffff167fc3d58168c5ae7397731d063d5bbf3d657854427343f4c083240f7aacaa2d0f628a8a6040516117c8929190612bd1565b60405180910390a46117de848a8a86868a611879565b6117ec848a8a8a8a8a611881565b505050505050505050565b60606000600167ffffffffffffffff81111561181657611815611f6a565b5b6040519080825280602002602001820160405280156118445781602001602082028036833780820191505090505b509050828160008151811061185c5761185b612967565b5b60200260200101818152505080915050919050565b505050505050565b505050505050565b6118a08473ffffffffffffffffffffffffffffffffffffffff16611c2f565b15611a50578373ffffffffffffffffffffffffffffffffffffffff1663f23a6e6187878686866040518663ffffffff1660e01b81526004016118e6959493929190612ff2565b6020604051808303816000875af192505050801561192257506040513d601f19601f8201168201806040525081019061191f9190613061565b60015b6119c75761192e61309b565b806308c379a00361198a57506119426130bd565b8061194d575061198c565b806040517f08c379a00000000000000000000000000000000000000000000000000000000081526004016119819190611edc565b60405180910390fd5b505b6040517f08c379a00000000000000000000000000000000000000000000000000000000081526004016119be906131bf565b60405180910390fd5b63f23a6e6160e01b7bffffffffffffffffffffffffffffffffffffffffffffffffffffffff1916817bffffffffffffffffffffffffffffffffffffffffffffffffffffffff191614611a4e576040517f08c379a0000000000000000000000000000000000000000000000000000000008152600401611a4590613251565b60405180910390fd5b505b505050505050565b611a778473ffffffffffffffffffffffffffffffffffffffff16611c2f565b15611c27578373ffffffffffffffffffffffffffffffffffffffff1663bc197c8187878686866040518663ffffffff1660e01b8152600401611abd959493929190613271565b6020604051808303816000875af1925050508015611af957506040513d601f19601f82011682018060405250810190611af69190613061565b60015b611b9e57611b0561309b565b806308c379a003611b615750611b196130bd565b80611b245750611b63565b806040517f08c379a0000000000000000000000000000000000000000000000000000000008152600401611b589190611edc565b60405180910390fd5b505b6040517f08c379a0000000000000000000000000000000000000000000000000000000008152600401611b95906131bf565b60405180910390fd5b63bc197c8160e01b7bffffffffffffffffffffffffffffffffffffffffffffffffffffffff1916817bffffffffffffffffffffffffffffffffffffffffffffffffffffffff191614611c25576040517f08c379a0000000000000000000000000000000000000000000000000000000008152600401611c1c90613251565b60405180910390fd5b505b505050505050565b6000808273ffffffffffffffffffffffffffffffffffffffff163b119050919050565b6000604051905090565b600080fd5b600080fd5b600073ffffffffffffffffffffffffffffffffffffffff82169050919050565b6000611c9182611c66565b9050919050565b611ca181611c86565b8114611cac57600080fd5b50565b600081359050611cbe81611c98565b92915050565b6000819050919050565b611cd781611cc4565b8114611ce257600080fd5b50565b600081359050611cf481611cce565b92915050565b60008060408385031215611d1157611d10611c5c565b5b6000611d1f85828601611caf565b9250506020611d3085828601611ce5565b9150509250929050565b611d4381611cc4565b82525050565b6000602082019050611d5e6000830184611d3a565b92915050565b60007fffffffff0000000000000000000000000000000000000000000000000000000082169050919050565b611d9981611d64565b8114611da457600080fd5b50565b600081359050611db681611d90565b92915050565b600060208284031215611dd257611dd1611c5c565b5b6000611de084828501611da7565b91505092915050565b60008115159050919050565b611dfe81611de9565b82525050565b6000602082019050611e196000830184611df5565b92915050565b600060208284031215611e3557611e34611c5c565b5b6000611e4384828501611ce5565b91505092915050565b600081519050919050565b600082825260208201905092915050565b60005b83811015611e86578082015181840152602081019050611e6b565b60008484015250505050565b6000601f19601f8301169050919050565b6000611eae82611e4c565b611eb88185611e57565b9350611ec8818560208601611e68565b611ed181611e92565b840191505092915050565b60006020820190508181036000830152611ef68184611ea3565b905092915050565b60008060008060808587031215611f1857611f17611c5c565b5b6000611f2687828801611caf565b9450506020611f3787828801611ce5565b9350506040611f4887828801611ce5565b9250506060611f5987828801611ce5565b91505092959194509250565b600080fd5b7f4e487b7100000000000000000000000000000000000000000000000000000000600052604160045260246000fd5b611fa282611e92565b810181811067ffffffffffffffff82111715611fc157611fc0611f6a565b5b80604052505050565b6000611fd4611c52565b9050611fe08282611f99565b919050565b600067ffffffffffffffff82111561200057611fff611f6a565b5b602082029050602081019050919050565b600080fd5b600061202961202484611fe5565b611fca565b9050808382526020820190506020840283018581111561204c5761204b612011565b5b835b8181101561207557806120618882611ce5565b84526020840193505060208101905061204e565b5050509392505050565b600082601f83011261209457612093611f65565b5b81356120a4848260208601612016565b91505092915050565b600080fd5b600067ffffffffffffffff8211156120cd576120cc611f6a565b5b6120d682611e92565b9050602081019050919050565b82818337600083830152505050565b6000612105612100846120b2565b611fca565b905082815260208101848484011115612121576121206120ad565b5b61212c8482856120e3565b509392505050565b600082601f83011261214957612148611f65565b5b81356121598482602086016120f2565b91505092915050565b600080600080600060a0868803121561217e5761217d611c5c565b5b600061218c88828901611caf565b955050602061219d88828901611caf565b945050604086013567ffffffffffffffff8111156121be576121bd611c61565b5b6121ca8882890161207f565b935050606086013567ffffffffffffffff8111156121eb576121ea611c61565b5b6121f78882890161207f565b925050608086013567ffffffffffffffff81111561221857612217611c61565b5b61222488828901612134565b9150509295509295909350565b60008060006060848603121561224a57612249611c5c565b5b600061225886828701611caf565b935050602061226986828701611ce5565b925050604061227a86828701611ce5565b9150509250925092565b600067ffffffffffffffff82111561229f5761229e611f6a565b5b602082029050602081019050919050565b60006122c36122be84612284565b611fca565b905080838252602082019050602084028301858111156122e6576122e5612011565b5b835b8181101561230f57806122fb8882611caf565b8452602084019350506020810190506122e8565b5050509392505050565b600082601f83011261232e5761232d611f65565b5b813561233e8482602086016122b0565b91505092915050565b6000806040838503121561235e5761235d611c5c565b5b600083013567ffffffffffffffff81111561237c5761237b611c61565b5b61238885828601612319565b925050602083013567ffffffffffffffff8111156123a9576123a8611c61565b5b6123b58582860161207f565b9150509250929050565b600081519050919050565b600082825260208201905092915050565b6000819050602082019050919050565b6123f481611cc4565b82525050565b600061240683836123eb565b60208301905092915050565b6000602082019050919050565b600061242a826123bf565b61243481856123ca565b935061243f836123db565b8060005b8381101561247057815161245788826123fa565b975061246283612412565b925050600181019050612443565b5085935050505092915050565b60006020820190508181036000830152612497818461241f565b905092915050565b6124a881611c86565b82525050565b60006020820190506124c3600083018461249f565b92915050565b6124d281611de9565b81146124dd57600080fd5b50565b6000813590506124ef816124c9565b92915050565b6000806040838503121561250c5761250b611c5c565b5b600061251a85828601611caf565b925050602061252b858286016124e0565b9150509250929050565b6000806040838503121561254c5761254b611c5c565b5b600061255a85828601611caf565b925050602061256b85828601611caf565b9150509250929050565b6000806040838503121561258c5761258b611c5c565b5b600061259a85828601611ce5565b92505060206125ab85828601611ce5565b9150509250929050565b600080600080600060a086880312156125d1576125d0611c5c565b5b60006125df88828901611caf565b95505060206125f088828901611caf565b945050604061260188828901611ce5565b935050606061261288828901611ce5565b925050608086013567ffffffffffffffff81111561263357612632611c61565b5b61263f88828901612134565b9150509295509295909350565b60006020828403121561266257612661611c5c565b5b600061267084828501611caf565b91505092915050565b7f455243313135353a2061646472657373207a65726f206973206e6f742061207660008201527f616c6964206f776e657200000000000000000000000000000000000000000000602082015250565b60006126d5602a83611e57565b91506126e082612679565b604082019050919050565b60006020820190508181036000830152612704816126c8565b9050919050565b7f4e487b7100000000000000000000000000000000000000000000000000000000600052602260045260246000fd5b6000600282049050600182168061275257607f821691505b6020821081036127655761276461270b565b5b50919050565b7f496e76616c696420726563697069656e74000000000000000000000000000000600082015250565b60006127a1601183611e57565b91506127ac8261276b565b602082019050919050565b600060208201905081810360008301526127d081612794565b9050919050565b7f457870697279206d757374206265206675747572650000000000000000000000600082015250565b600061280d601583611e57565b9150612818826127d7565b602082019050919050565b6000602082019050818103600083015261283c81612800565b9050919050565b7f455243313135353a2063616c6c6572206973206e6f7420746f6b656e206f776e60008201527f6572206f7220617070726f766564000000000000000000000000000000000000602082015250565b600061289f602e83611e57565b91506128aa82612843565b604082019050919050565b600060208201905081810360008301526128ce81612892565b9050919050565b7f455243313135353a206163636f756e747320616e6420696473206c656e67746860008201527f206d69736d617463680000000000000000000000000000000000000000000000602082015250565b6000612931602983611e57565b915061293c826128d5565b604082019050919050565b6000602082019050818103600083015261296081612924565b9050919050565b7f4e487b7100000000000000000000000000000000000000000000000000000000600052603260045260246000fd5b7f4e487b7100000000000000000000000000000000000000000000000000000000600052601160045260246000fd5b60006129d082611cc4565b91507fffffffffffffffffffffffffffffffffffffffffffffffffffffffffffffffff8203612a0257612a01612996565b5b600182019050919050565b7f4f776e61626c653a206e6577206f776e657220697320746865207a65726f206160008201527f6464726573730000000000000000000000000000000000000000000000000000602082015250565b6000612a69602683611e57565b9150612a7482612a0d565b604082019050919050565b60006020820190508181036000830152612a9881612a5c565b9050919050565b7f4f776e61626c653a2063616c6c6572206973206e6f7420746865206f776e6572600082015250565b6000612ad5602083611e57565b9150612ae082612a9f565b602082019050919050565b60006020820190508181036000830152612b0481612ac8565b9050919050565b7f455243313135353a206d696e7420746f20746865207a65726f2061646472657360008201527f7300000000000000000000000000000000000000000000000000000000000000602082015250565b6000612b67602183611e57565b9150612b7282612b0b565b604082019050919050565b60006020820190508181036000830152612b9681612b5a565b9050919050565b6000612ba882611cc4565b9150612bb383611cc4565b9250828201905080821115612bcb57612bca612996565b5b92915050565b6000604082019050612be66000830185611d3a565b612bf36020830184611d3a565b9392505050565b7f455243313135353a2069647320616e6420616d6f756e7473206c656e6774682060008201527f6d69736d61746368000000000000000000000000000000000000000000000000602082015250565b6000612c56602883611e57565b9150612c6182612bfa565b604082019050919050565b60006020820190508181036000830152612c8581612c49565b9050919050565b7f455243313135353a207472616e7366657220746f20746865207a65726f20616460008201527f6472657373000000000000000000000000000000000000000000000000000000602082015250565b6000612ce8602583611e57565b9150612cf382612c8c565b604082019050919050565b60006020820190508181036000830152612d1781612cdb565b9050919050565b7f455243313135353a20696e73756666696369656e742062616c616e636520666f60008201527f72207472616e7366657200000000000000000000000000000000000000000000602082015250565b6000612d7a602a83611e57565b9150612d8582612d1e565b604082019050919050565b60006020820190508181036000830152612da981612d6d565b9050919050565b60006040820190508181036000830152612dca818561241f565b90508181036020830152612dde818461241f565b90509392505050565b7f455243313135353a206275726e2066726f6d20746865207a65726f206164647260008201527f6573730000000000000000000000000000000000000000000000000000000000602082015250565b6000612e43602383611e57565b9150612e4e82612de7565b604082019050919050565b60006020820190508181036000830152612e7281612e36565b9050919050565b7f455243313135353a206275726e20616d6f756e7420657863656564732062616c60008201527f616e636500000000000000000000000000000000000000000000000000000000602082015250565b6000612ed5602483611e57565b9150612ee082612e79565b604082019050919050565b60006020820190508181036000830152612f0481612ec8565b9050919050565b7f455243313135353a2073657474696e6720617070726f76616c2073746174757360008201527f20666f722073656c660000000000000000000000000000000000000000000000602082015250565b6000612f67602983611e57565b9150612f7282612f0b565b604082019050919050565b60006020820190508181036000830152612f9681612f5a565b9050919050565b600081519050919050565b600082825260208201905092915050565b6000612fc482612f9d565b612fce8185612fa8565b9350612fde818560208601611e68565b612fe781611e92565b840191505092915050565b600060a082019050613007600083018861249f565b613014602083018761249f565b6130216040830186611d3a565b61302e6060830185611d3a565b81810360808301526130408184612fb9565b90509695505050505050565b60008151905061305b81611d90565b92915050565b60006020828403121561307757613076611c5c565b5b60006130858482850161304c565b91505092915050565b60008160e01c9050919050565b600060033d11156130ba5760046000803e6130b760005161308e565b90505b90565b600060443d1061314a576130cf611c52565b60043d036004823e80513d602482011167ffffffffffffffff821117156130f757505061314a565b808201805167ffffffffffffffff811115613115575050505061314a565b80602083010160043d03850181111561313257505050505061314a565b61314182602001850186611f99565b82955050505050505b90565b7f455243313135353a207472616e7366657220746f206e6f6e2d4552433131353560008201527f526563656976657220696d706c656d656e746572000000000000000000000000602082015250565b60006131a9603483611e57565b91506131b48261314d565b604082019050919050565b600060208201905081810360008301526131d88161319c565b9050919050565b7f455243313135353a204552433131353552656365697665722072656a6563746560008201527f6420746f6b656e73000000000000000000000000000000000000000000000000602082015250565b600061323b602883611e57565b9150613246826131df565b604082019050919050565b6000602082019050818103600083015261326a8161322e565b9050919050565b600060a082019050613286600083018861249f565b613293602083018761249f565b81810360408301526132a5818661241f565b905081810360608301526132b9818561241f565b905081810360808301526132cd8184612fb9565b9050969550505050505056fea2646970667358221220f6cde65b3afc1b8c61eb2ec4f0dfdbe18b424426f571c2c41cedc1ab7a06508664736f6c63430008130033",
  "linkReferences": {},
  "deployedLinkReferences": {}
}