{
  "_format": "hh-sol-artifact-1",
  "contractName": "AIAgentLeasingDEX",
  "sourceName": "contracts/AIAgentLeasingDEX.sol",
  "abi": [
    {
      "inputs": [
        {
          "internalType": "address",
          "name": "_okxRouter",
          "type": "address"
        }
      ],
      "stateMutability": "nonpayable",
      "type": "constructor"
    },
    {
      "anonymous": false,
      "inputs": [
        {
          "indexed": true,
          "internalType": "uint256",
          "name": "agentId",
          "type": "uint256"
        },
        {
          "indexed": true,
          "internalType": "address",
          "name": "creator",
          "type": "address"
        },
        {
          "indexed": false,
          "internalType": "string",
          "name": "metadataURI",
          "type": "string"
        },
        {
          "indexed": false,
          "internalType": "uint256",
          "name": "leaseRatePerSecond",
          "type": "uint256"
        }
      ],
      "name": "AgentMinted",
      "type": "event"
    },
    {
      "anonymous": false,
      "inputs": [
        {
          "indexed": true,
          "internalType": "address",
          "name": "owner",
          "type": "address"
        },
        {
          "indexed": true,
          "internalType": "address",
          "name": "approved",
          "type": "address"
        },
        {
          "indexed": true,
          "internalType": "uint256",
          "name": "tokenId",
          "type": "uint256"
        }
      ],
      "name": "Approval",
      "type": "event"
    },
    {
      "anonymous": false,
      "inputs": [
        {
          "indexed": true,
          "internalType": "address",
          "name": "owner",
          "type": "address"
        },
        {
          "indexed": true,
          "internalType": "address",
          "name": "operator",
          "type": "address"
        },
        {
          "indexed": false,
          "internalType": "bool",
          "name": "approved",
          "type": "bool"
        }
      ],
      "name": "ApprovalForAll",
      "type": "event"
    },
    {
      "anonymous": false,
      "inputs": [
        {
          "indexed": false,
          "internalType": "uint256",
          "name": "_fromTokenId",
          "type": "uint256"
        },
        {
          "indexed": false,
          "internalType": "uint256",
          "name": "_toTokenId",
          "type": "uint256"
        }
      ],
      "name": "BatchMetadataUpdate",
      "type": "event"
    },
    {
      "anonymous": false,
      "inputs": [
        {
          "indexed": true,
          "internalType": "uint256",
          "name": "leaseId",
          "type": "uint256"
        },
        {
          "indexed": true,
          "internalType": "uint256",
          "name": "agentId",
          "type": "uint256"
        },
        {
          "indexed": true,
          "internalType": "address",
          "name": "renter",
          "type": "address"
        },
        {
          "indexed": false,
          "internalType": "uint256",
          "name": "expiresAt",
          "type": "uint256"
        },
        {
          "indexed": false,
          "internalType": "uint256",
          "name": "pricePaid",
          "type": "uint256"
        }
      ],
      "name": "LeaseCreated",
      "type": "event"
    },
    {
      "anonymous": false,
      "inputs": [
        {
          "indexed": true,
          "internalType": "uint256",
          "name": "leaseId",
          "type": "uint256"
        },
        {
          "indexed": true,
          "internalType": "uint256",
          "name": "agentId",
          "type": "uint256"
        },
        {
          "indexed": true,
          "internalType": "address",
          "name": "revokedBy",
          "type": "address"
        }
      ],
      "name": "LeaseRevoked",
      "type": "event"
    },
    {
      "anonymous": false,
      "inputs": [
        {
          "indexed": false,
          "internalType": "uint256",
          "name": "_tokenId",
          "type": "uint256"
        }
      ],
      "name": "MetadataUpdate",
      "type": "event"
    },
    {
      "anonymous": false,
      "inputs": [
        {
          "indexed": true,
          "internalType": "address",
          "name": "previousOwner",
          "type": "address"
        },
        {
          "indexed": true,
          "internalType": "address",
          "name": "newOwner",
          "type": "address"
        }
      ],
      "name": "OwnershipTransferred",
      "type": "event"
    },
    {
      "anonymous": false,
      "inputs": [
        {
          "indexed": false,
          "internalType": "address",
          "name": "account",
          "type": "address"
        }
      ],
      "name": "Paused",
      "type": "event"
    },
    {
      "anonymous": false,
      "inputs": [
        {
          "indexed": true,
          "internalType": "uint256",
          "name": "agentId",
          "type": "uint256"
        },
        {
          "indexed": true,
          "internalType": "uint256",
          "name": "leaseId",
          "type": "uint256"
        },
        {
          "indexed": true,
          "internalType": "address",
          "name": "executor",
          "type": "address"
        },
        {
          "indexed": false,
          "internalType": "address",
          "name": "tokenIn",
          "type": "address"
        },
        {
          "indexed": false,
          "internalType": "address",
          "name": "tokenOut",
          "type": "address"
        },
        {
          "indexed": false,
          "internalType": "uint256",
          "name": "amountIn",
          "type": "uint256"
        },
        {
          "indexed": false,
          "internalType": "uint256",
          "name": "amountOut",
          "type": "uint256"
        },
        {
          "indexed": false,
          "internalType": "uint256",
          "name": "timestamp",
          "type": "uint256"
        }
      ],
      "name": "SwapExecuted",
      "type": "event"
    },
    {
      "anonymous": false,
      "inputs": [
        {
          "indexed": true,
          "internalType": "address",
          "name": "from",
          "type": "address"
        },
        {
          "indexed": true,
          "internalType": "address",
          "name": "to",
          "type": "address"
        },
        {
          "indexed": true,
          "internalType": "uint256",
          "name": "tokenId",
          "type": "uint256"
        }
      ],
      "name": "Transfer",
      "type": "event"
    },
    {
      "anonymous": false,
      "inputs": [
        {
          "indexed": false,
          "internalType": "address",
          "name": "account",
          "type": "address"
        }
      ],
      "name": "Unpaused",
      "type": "event"
    },
    {
      "inputs": [],
      "name": "accessPass",
      "outputs": [
        {
          "internalType": "contract AgentAccessPass",
          "name": "",
          "type": "address"
        }
      ],
      "stateMutability": "view",
      "type": "function"
    },
    {
      "inputs": [
        {
          "internalType": "uint256",
          "name": "",
          "type": "uint256"
        }
      ],
      "name": "agents",
      "outputs": [
        {
          "internalType": "address",
          "name": "creator",
          "type": "address"
        },
        {
          "internalType": "string",
          "name": "metadataURI",
          "type": "string"
        },
        {
          "internalType": "uint256",
          "name": "leaseRatePerSecond",
          "type": "uint256"
        }
      ],
      "stateMutability": "view",
      "type": "function"
    },
    {
      "inputs": [
        {
          "internalType": "address",
          "name": "to",
          "type": "address"
        },
        {
          "internalType": "uint256",
          "name": "tokenId",
          "type": "uint256"
        }
      ],
      "name": "approve",
      "outputs": [],
      "stateMutability": "nonpayable",
      "type": "function"
    },
    {
      "inputs": [
        {
          "internalType": "address",
          "name": "owner",
          "type": "address"
        }
      ],
      "name": "balanceOf",
      "outputs": [
        {
          "internalType": "uint256",
          "name": "",
          "type": "uint256"
        }
      ],
      "stateMutability": "view",
      "type": "function"
    },
    {
      "inputs": [
        {
          "internalType": "uint256",
          "name": "agentId",
          "type": "uint256"
        },
        {
          "internalType": "uint256",
          "name": "leaseId",
          "type": "uint256"
        },
        {
          "internalType": "uint256",
          "name": "amountIn",
          "type": "uint256"
        },
        {
          "internalType": "uint256",
          "name": "amountOutMin",
          "type": "uint256"
        },
        {
          "internalType": "address[]",
          "name": "path",
          "type": "address[]"
        },
        {
          "internalType": "address",
          "name": "recipient",
          "type": "address"
        },
        {
          "internalType": "uint256",
          "name": "deadline",
          "type": "uint256"
        }
      ],
      "name": "executeSwap",
      "outputs": [
        {
          "internalType": "uint256[]",
          "name": "amounts",
          "type": "uint256[]"
        }
      ],
      "stateMutability": "nonpayable",
      "type": "function"
    },
    {
      "inputs": [],
      "name": "getAccessPassContract",
      "outputs": [
        {
          "internalType": "address",
          "name": "",
          "type": "address"
        }
      ],
      "stateMutability": "view",
      "type": "function"
    },
    {
      "inputs": [
        {
          "internalType": "uint256",
          "name": "agentId",
          "type": "uint256"
        }
      ],
      "name": "getAgent",
      "outputs": [
        {
          "components": [
            {
              "internalType": "address",
              "name": "creator",
              "type": "address"
            },
            {
              "internalType": "string",
              "name": "metadataURI",
              "type": "string"
            },
            {
              "internalType": "uint256",
              "name": "leaseRatePerSecond",
              "type": "uint256"
            }
          ],
          "internalType": "struct AIAgentLeasingDEX.Agent",
          "name": "",
          "type": "tuple"
        }
      ],
      "stateMutability": "view",
      "type": "function"
    },
    {
      "inputs": [
        {
          "internalType": "uint256",
          "name": "agentId",
          "type": "uint256"
        }
      ],
      "name": "getAgentLeaseIds",
      "outputs": [
        {
          "internalType": "uint256[]",
          "name": "",
          "type": "uint256[]"
        }
      ],
      "stateMutability": "view",
      "type": "function"
    },
    {
      "inputs": [
        {
          "internalType": "uint256",
          "name": "tokenId",
          "type": "uint256"
        }
      ],
      "name": "getApproved",
      "outputs": [
        {
          "internalType": "address",
          "name": "",
          "type": "address"
        }
      ],
      "stateMutability": "view",
      "type": "function"
    },
    {
      "inputs": [
        {
          "internalType": "uint256",
          "name": "leaseId",
          "type": "uint256"
        }
      ],
      "name": "getLease",
      "outputs": [
        {
          "components": [
            {
              "internalType": "address",
              "name": "renter",
              "type": "address"
            },
            {
              "internalType": "uint256",
              "name": "agentId",
              "type": "uint256"
            },
            {
              "internalType": "uint256",
              "name": "expiresAt",
              "type": "uint256"
            },
            {
              "internalType": "uint256",
              "name": "totalPricePaid",
              "type": "uint256"
            },
            {
              "internalType": "bool",
              "name": "active",
              "type": "bool"
            }
          ],
          "internalType": "struct AIAgentLeasingDEX.Lease",
          "name": "",
          "type": "tuple"
        }
      ],
      "stateMutability": "view",
      "type": "function"
    },
    {
      "inputs": [
        {
          "internalType": "address",
          "name": "owner",
          "type": "address"
        },
        {
          "internalType": "address",
          "name": "operator",
          "type": "address"
        }
      ],
      "name": "isApprovedForAll",
      "outputs": [
        {
          "internalType": "bool",
          "name": "",
          "type": "bool"
        }
      ],
      "stateMutability": "view",
      "type": "function"
    },
    {
      "inputs": [
        {
          "internalType": "uint256",
          "name": "agentId",
          "type": "uint256"
        },
        {
          "internalType": "uint256",
          "name": "leaseId",
          "type": "uint256"
        },
        {
          "internalType": "address",
          "name": "user",
          "type": "address"
        }
      ],
      "name": "isLeaseValid",
      "outputs": [
        {
          "internalType": "bool",
          "name": "",
          "type": "bool"
        }
      ],
      "stateMutability": "view",
      "type": "function"
    },
    {
      "inputs": [
        {
          "internalType": "uint256",
          "name": "agentId",
          "type": "uint256"
        },
        {
          "internalType": "uint256",
          "name": "durationSeconds",
          "type": "uint256"
        }
      ],
      "name": "leaseAgent",
      "outputs": [
        {
          "internalType": "uint256",
          "name": "leaseId",
          "type": "uint256"
        }
      ],
      "stateMutability": "payable",
      "type": "function"
    },
    {
      "inputs": [
        {
          "internalType": "uint256",
          "name": "",
          "type": "uint256"
        }
      ],
      "name": "leases",
      "outputs": [
        {
          "internalType": "address",
          "name": "renter",
          "type": "address"
        },
        {
          "internalType": "uint256",
          "name": "agentId",
          "type": "uint256"
        },
        {
          "internalType": "uint256",
          "name": "expiresAt",
          "type": "uint256"
        },
        {
          "internalType": "uint256",
          "name": "totalPricePaid",
          "type": "uint256"
        },
        {
          "internalType": "bool",
          "name": "active",
          "type": "bool"
        }
      ],
      "stateMutability": "view",
      "type": "function"
    },
    {
      "inputs": [
        {
          "internalType": "string",
          "name": "metadataURI",
          "type": "string"
        },
        {
          "internalType": "uint256",
          "name": "leaseRatePerSecond",
          "type": "uint256"
        }
      ],
      "name": "mintAgent",
      "outputs": [
        {
          "internalType": "uint256",
          "name": "",
          "type": "uint256"
        }
      ],
      "stateMutability": "nonpayable",
      "type": "function"
    },
    {
      "inputs": [],
      "name": "name",
      "outputs": [
        {
          "internalType": "string",
          "name": "",
          "type": "string"
        }
      ],
      "stateMutability": "view",
      "type": "function"
    },
    {
      "inputs": [],
      "name": "okxRouter",
      "outputs": [
        {
          "internalType": "contract IOKXRouter",
          "name": "",
          "type": "address"
        }
      ],
      "stateMutability": "view",
      "type": "function"
    },
    {
      "inputs": [],
      "name": "owner",
      "outputs": [
        {
          "internalType": "address",
          "name": "",
          "type": "address"
        }
      ],
      "stateMutability": "view",
      "type": "function"
    },
    {
      "inputs": [
        {
          "internalType": "uint256",
          "name": "tokenId",
          "type": "uint256"
        }
      ],
      "name": "ownerOf",
      "outputs": [
        {
          "internalType": "address",
          "name": "",
          "type": "address"
        }
      ],
      "stateMutability": "view",
      "type": "function"
    },
    {
      "inputs": [],
      "name": "pause",
      "outputs": [],
      "stateMutability": "nonpayable",
      "type": "function"
    },
    {
      "inputs": [],
      "name": "paused",
      "outputs": [
        {
          "internalType": "bool",
          "name": "",
          "type": "bool"
        }
      ],
      "stateMutability": "view",
      "type": "function"
    },
    {
      "inputs": [],
      "name": "renounceOwnership",
      "outputs": [],
      "stateMutability": "nonpayable",
      "type": "function"
    },
    {
      "inputs": [
        {
          "internalType": "uint256",
          "name": "leaseId",
          "type": "uint256"
        }
      ],
      "name": "revokeLease",
      "outputs": [],
      "stateMutability": "nonpayable",
      "type": "function"
    },
    {
      "inputs": [
        {
          "internalType": "address",
          "name": "from",
          "type": "address"
        },
        {
          "internalType": "address",
          "name": "to",
          "type": "address"
        },
        {
          "internalType": "uint256",
          "name": "tokenId",
          "type": "uint256"
        }
      ],
      "name": "safeTransferFrom",
      "outputs": [],
      "stateMutability": "nonpayable",
      "type": "function"
    },
    {
      "inputs": [
        {
          "internalType": "address",
          "name": "from",
          "type": "address"
        },
        {
          "internalType": "address",
          "name": "to",
          "type": "address"
        },
        {
          "internalType": "uint256",
          "name": "tokenId",
          "type": "uint256"
        },
        {
          "internalType": "bytes",
          "name": "data",
          "type": "bytes"
        }
      ],
      "name": "safeTransferFrom",
      "outputs": [],
      "stateMutability": "nonpayable",
      "type": "function"
    },
    {
      "inputs": [
        {
          "internalType": "address",
          "name": "operator",
          "type": "address"
        },
        {
          "internalType": "bool",
          "name": "approved",
          "type": "bool"
        }
      ],
      "name": "setApprovalForAll",
      "outputs": [],
      "stateMutability": "nonpayable",
      "type": "function"
    },
    {
      "inputs": [
        {
          "internalType": "bytes4",
          "name": "interfaceId",
          "type": "bytes4"
        }
      ],
      "name": "supportsInterface",
      "outputs": [
        {
          "internalType": "bool",
          "name": "",
          "type": "bool"
        }
      ],
      "stateMutability": "view",
      "type": "function"
    },
    {
      "inputs": [],
      "name": "symbol",
      "outputs": [
        {
          "internalType": "string",
          "name": "",
          "type": "string"
        }
      ],
      "stateMutability": "view",
      "type": "function"
    },
    {
      "inputs": [
        {
          "internalType": "uint256",
          "name": "tokenId",
          "type": "uint256"
        }
      ],
      "name": "tokenURI",
      "outputs": [
        {
          "internalType": "string",
          "name": "",
          "type": "string"
        }
      ],
      "stateMutability": "view",
      "type": "function"
    },
    {
      "inputs": [
        {
          "internalType": "address",
          "name": "from",
          "type": "address"
        },
        {
          "internalType": "address",
          "name": "to",
          "type": "address"
        },
        {
          "internalType": "uint256",
          "name": "tokenId",
          "type": "uint256"
        }
      ],
      "name": "transferFrom",
      "outputs": [],
      "stateMutability": "nonpayable",
      "type": "function"
    },
    {
      "inputs": [
        {
          "internalType": "address",
          "name": "newOwner",
          "type": "address"
        }
      ],
      "name": "transferOwnership",
      "outputs": [],
      "stateMutability": "nonpayable",
      "type": "function"
    },
    {
      "inputs": [],
      "name": "unpause",
      "outputs": [],
      "stateMutability": "nonpayable",
      "type": "function"
    }
  ],
  "bytecode": "0x60806040523480156200001157600080fd5b506040516200978b3803806200978b83398181016040528101906200003791906200038f565b6040518060400160405280600781526020017f41494167656e74000000000000000000000000000000000000000000000000008152506040518060400160405280600381526020017f41494100000000000000000000000000000000000000000000000000000000008152508160009081620000b491906200063b565b508060019081620000c691906200063b565b5050506000600760006101000a81548160ff02191690831515021790555062000104620000f86200024960201b60201c565b6200025160201b60201c565b604051620001129062000317565b604051809103906000f0801580156200012f573d6000803e3d6000fd5b50600d60006101000a81548173ffffffffffffffffffffffffffffffffffffffff021916908373ffffffffffffffffffffffffffffffffffffffff160217905550600d60009054906101000a900473ffffffffffffffffffffffffffffffffffffffff1673ffffffffffffffffffffffffffffffffffffffff1663f2fde38b336040518263ffffffff1660e01b8152600401620001cd919062000733565b600060405180830381600087803b158015620001e857600080fd5b505af1158015620001fd573d6000803e3d6000fd5b5050505080600e60006101000a81548173ffffffffffffffffffffffffffffffffffffffff021916908373ffffffffffffffffffffffffffffffffffffffff1602179055505062000750565b600033905090565b6000600760019054906101000a900473ffffffffffffffffffffffffffffffffffffffff16905081600760016101000a81548173ffffffffffffffffffffffffffffffffffffffff021916908373ffffffffffffffffffffffffffffffffffffffff1602179055508173ffffffffffffffffffffffffffffffffffffffff168173ffffffffffffffffffffffffffffffffffffffff167f8be0079c531659141344cd1fd0a4f28419497f9722a3daafe3b4186f6b6457e060405160405180910390a35050565b6137bd8062005fce83390190565b600080fd5b600073ffffffffffffffffffffffffffffffffffffffff82169050919050565b600062000357826200032a565b9050919050565b62000369816200034a565b81146200037557600080fd5b50565b60008151905062000389816200035e565b92915050565b600060208284031215620003a857620003a762000325565b5b6000620003b88482850162000378565b91505092915050565b600081519050919050565b7f4e487b7100000000000000000000000000000000000000000000000000000000600052604160045260246000fd5b7f4e487b7100000000000000000000000000000000000000000000000000000000600052602260045260246000fd5b600060028204905060018216806200044357607f821691505b602082108103620004595762000458620003fb565b5b50919050565b60008190508160005260206000209050919050565b60006020601f8301049050919050565b600082821b905092915050565b600060088302620004c37fffffffffffffffffffffffffffffffffffffffffffffffffffffffffffffffff8262000484565b620004cf868362000484565b95508019841693508086168417925050509392505050565b6000819050919050565b6000819050919050565b60006200051c620005166200051084620004e7565b620004f1565b620004e7565b9050919050565b6000819050919050565b6200053883620004fb565b62000550620005478262000523565b84845462000491565b825550505050565b600090565b6200056762000558565b620005748184846200052d565b505050565b5b818110156200059c57620005906000826200055d565b6001810190506200057a565b5050565b601f821115620005eb57620005b5816200045f565b620005c08462000474565b81016020851015620005d0578190505b620005e8620005df8562000474565b83018262000579565b50505b505050565b600082821c905092915050565b60006200061060001984600802620005f0565b1980831691505092915050565b60006200062b8383620005fd565b9150826002028217905092915050565b6200064682620003c1565b67ffffffffffffffff811115620006625762000661620003cc565b5b6200066e82546200042a565b6200067b828285620005a0565b600060209050601f831160018114620006b357600084156200069e578287015190505b620006aa85826200061d565b8655506200071a565b601f198416620006c3866200045f565b60005b82811015620006ed57848901518255600182019150602085019450602081019050620006c6565b868310156200070d578489015162000709601f891682620005fd565b8355505b6001600288020188555050505b505050505050565b6200072d816200034a565b82525050565b60006020820190506200074a600083018462000722565b92915050565b61586e80620007606000396000f3fe6080604052600436106101e35760003560e01c8063715018a611610102578063a22cb46511610095578063b88d4fde11610064578063b88d4fde14610739578063c87b56dd14610762578063e985e9c51461079f578063f2fde38b146107dc576101e3565b8063a22cb46514610666578063b5e7eb4a1461068f578063b69d8916146106cc578063b714b25d14610709576101e3565b80638da5cb5b116100d15780638da5cb5b1461059657806395d89b41146105c15780639f44657c146105ec5780639f4f193f14610629576101e3565b8063715018a6146104fe578063843c3100146105155780638456cb591461053e5780638927a10614610555576101e3565b80632eae56dc1161017a5780635c975abb116101495780635c975abb1461041c5780636352211e146104475780637083f1371461048457806370a08231146104c1576101e3565b80632eae56dc146103725780633f4ba83a1461039d57806342842e0e146103b4578063513856c8146103dd576101e3565b80630d671ed4116101b65780630d671ed4146102b65780630dfe416e146102e157806323b872dd1461030c5780632de5aaf714610335576101e3565b806301ffc9a7146101e857806306fdde0314610225578063081812fc14610250578063095ea7b31461028d575b600080fd5b3480156101f457600080fd5b5061020f600480360381019061020a91906135a9565b610805565b60405161021c91906135f1565b60405180910390f35b34801561023157600080fd5b5061023a610866565b604051610247919061369c565b60405180910390f35b34801561025c57600080fd5b50610277600480360381019061027291906136f4565b6108f8565b6040516102849190613762565b60405180910390f35b34801561029957600080fd5b506102b460048036038101906102af91906137a9565b61093e565b005b3480156102c257600080fd5b506102cb610a55565b6040516102d89190613848565b60405180910390f35b3480156102ed57600080fd5b506102f6610a7b565b6040516103039190613762565b60405180910390f35b34801561031857600080fd5b50610333600480360381019061032e9190613863565b610aa5565b005b34801561034157600080fd5b5061035c600480360381019061035791906136f4565b610b05565b604051610369919061396e565b60405180910390f35b34801561037e57600080fd5b50610387610c24565b60405161039491906139b1565b60405180910390f35b3480156103a957600080fd5b506103b2610c4a565b005b3480156103c057600080fd5b506103db60048036038101906103d69190613863565b610c5c565b005b3480156103e957600080fd5b5061040460048036038101906103ff91906136f4565b610c7c565b604051610413939291906139db565b60405180910390f35b34801561042857600080fd5b50610431610d4e565b60405161043e91906135f1565b60405180910390f35b34801561045357600080fd5b5061046e600480360381019061046991906136f4565b610d65565b60405161047b9190613762565b60405180910390f35b34801561049057600080fd5b506104ab60048036038101906104a69190613b4e565b610deb565b6040516104b89190613baa565b60405180910390f35b3480156104cd57600080fd5b506104e860048036038101906104e39190613bc5565b610f6d565b6040516104f59190613baa565b60405180910390f35b34801561050a57600080fd5b50610513611024565b005b34801561052157600080fd5b5061053c600480360381019061053791906136f4565b611038565b005b34801561054a57600080fd5b50610553611245565b005b34801561056157600080fd5b5061057c600480360381019061057791906136f4565b611257565b60405161058d959493929190613bf2565b60405180910390f35b3480156105a257600080fd5b506105ab6112ba565b6040516105b89190613762565b60405180910390f35b3480156105cd57600080fd5b506105d66112e4565b6040516105e3919061369c565b60405180910390f35b3480156105f857600080fd5b50610613600480360381019061060e91906136f4565b611376565b6040516106209190613cbc565b60405180910390f35b34801561063557600080fd5b50610650600480360381019061064b91906136f4565b611432565b60405161065d9190613d86565b60405180910390f35b34801561067257600080fd5b5061068d60048036038101906106889190613dd4565b61149d565b005b34801561069b57600080fd5b506106b660048036038101906106b19190613e14565b6114b3565b6040516106c391906135f1565b60405180910390f35b3480156106d857600080fd5b506106f360048036038101906106ee9190613ec7565b611590565b6040516107009190613d86565b60405180910390f35b610723600480360381019061071e9190613f89565b611b10565b6040516107309190613baa565b60405180910390f35b34801561074557600080fd5b50610760600480360381019061075b919061406a565b612030565b005b34801561076e57600080fd5b50610789600480360381019061078491906136f4565b612092565b604051610796919061369c565b60405180910390f35b3480156107ab57600080fd5b506107c660048036038101906107c191906140ed565b6121a4565b6040516107d391906135f1565b60405180910390f35b3480156107e857600080fd5b5061080360048036038101906107fe9190613bc5565b612238565b005b6000634906490660e01b7bffffffffffffffffffffffffffffffffffffffffffffffffffffffff1916827bffffffffffffffffffffffffffffffffffffffffffffffffffffffff1916148061085f575061085e826122bb565b5b9050919050565b6060600080546108759061415c565b80601f01602080910402602001604051908101604052809291908181526020018280546108a19061415c565b80156108ee5780601f106108c3576101008083540402835291602001916108ee565b820191906000526020600020905b8154815290600101906020018083116108d157829003601f168201915b5050505050905090565b60006109038261239d565b6004600083815260200190815260200160002060009054906101000a900473ffffffffffffffffffffffffffffffffffffffff169050919050565b600061094982610d65565b90508073ffffffffffffffffffffffffffffffffffffffff168373ffffffffffffffffffffffffffffffffffffffff16036109b9576040517f08c379a00000000000000000000000000000000000000000000000000000000081526004016109b0906141ff565b60405180910390fd5b8073ffffffffffffffffffffffffffffffffffffffff166109d86123e8565b73ffffffffffffffffffffffffffffffffffffffff161480610a075750610a0681610a016123e8565b6121a4565b5b610a46576040517f08c379a0000000000000000000000000000000000000000000000000000000008152600401610a3d90614291565b60405180910390fd5b610a5083836123f0565b505050565b600d60009054906101000a900473ffffffffffffffffffffffffffffffffffffffff1681565b6000600d60009054906101000a900473ffffffffffffffffffffffffffffffffffffffff16905090565b610ab6610ab06123e8565b826124a9565b610af5576040517f08c379a0000000000000000000000000000000000000000000000000000000008152600401610aec90614323565b60405180910390fd5b610b0083838361253e565b505050565b610b0d6134bf565b600a60008381526020019081526020016000206040518060600160405290816000820160009054906101000a900473ffffffffffffffffffffffffffffffffffffffff1673ffffffffffffffffffffffffffffffffffffffff1673ffffffffffffffffffffffffffffffffffffffff168152602001600182018054610b919061415c565b80601f0160208091040260200160405190810160405280929190818152602001828054610bbd9061415c565b8015610c0a5780601f10610bdf57610100808354040283529160200191610c0a565b820191906000526020600020905b815481529060010190602001808311610bed57829003601f168201915b505050505081526020016002820154815250509050919050565b600e60009054906101000a900473ffffffffffffffffffffffffffffffffffffffff1681565b610c52612837565b610c5a6128b5565b565b610c7783838360405180602001604052806000815250612030565b505050565b600a6020528060005260406000206000915090508060000160009054906101000a900473ffffffffffffffffffffffffffffffffffffffff1690806001018054610cc59061415c565b80601f0160208091040260200160405190810160405280929190818152602001828054610cf19061415c565b8015610d3e5780601f10610d1357610100808354040283529160200191610d3e565b820191906000526020600020905b815481529060010190602001808311610d2157829003601f168201915b5050505050908060020154905083565b6000600760009054906101000a900460ff16905090565b600080610d7183612918565b9050600073ffffffffffffffffffffffffffffffffffffffff168173ffffffffffffffffffffffffffffffffffffffff1603610de2576040517f08c379a0000000000000000000000000000000000000000000000000000000008152600401610dd99061438f565b60405180910390fd5b80915050919050565b6000610df5612955565b60008211610e38576040517f08c379a0000000000000000000000000000000000000000000000000000000008152600401610e2f906143fb565b60405180910390fd5b610e42600861299f565b6000610e4e60086129b5565b9050610e5a33826129c3565b610e648185612be0565b60405180606001604052803373ffffffffffffffffffffffffffffffffffffffff16815260200185815260200184815250600a600083815260200190815260200160002060008201518160000160006101000a81548173ffffffffffffffffffffffffffffffffffffffff021916908373ffffffffffffffffffffffffffffffffffffffff1602179055506020820151816001019081610f0491906145bd565b50604082015181600201559050503373ffffffffffffffffffffffffffffffffffffffff16817fa4652c347eda285ec0c39ae9b126864ddd645ea09491cf0cccc0628a8affcc6a8686604051610f5b92919061468f565b60405180910390a38091505092915050565b60008073ffffffffffffffffffffffffffffffffffffffff168273ffffffffffffffffffffffffffffffffffffffff1603610fdd576040517f08c379a0000000000000000000000000000000000000000000000000000000008152600401610fd490614731565b60405180910390fd5b600360008373ffffffffffffffffffffffffffffffffffffffff1673ffffffffffffffffffffffffffffffffffffffff168152602001908152602001600020549050919050565b61102c612837565b6110366000612c84565b565b611040612955565b6000600b600083815260200190815260200160002090508060040160009054906101000a900460ff166110a8576040517f08c379a000000000000000000000000000000000000000000000000000000000815260040161109f9061479d565b60405180910390fd5b3373ffffffffffffffffffffffffffffffffffffffff166110cc8260010154610d65565b73ffffffffffffffffffffffffffffffffffffffff1614611122576040517f08c379a000000000000000000000000000000000000000000000000000000000815260040161111990614809565b60405180910390fd5b60008160040160006101000a81548160ff021916908315150217905550600d60009054906101000a900473ffffffffffffffffffffffffffffffffffffffff1673ffffffffffffffffffffffffffffffffffffffff16638a2605a78260000160009054906101000a900473ffffffffffffffffffffffffffffffffffffffff168360010154856040518463ffffffff1660e01b81526004016111c693929190614829565b600060405180830381600087803b1580156111e057600080fd5b505af11580156111f4573d6000803e3d6000fd5b505050503373ffffffffffffffffffffffffffffffffffffffff168160010154837faffb21affe77620c7e5f29bce045293aa664cd5de48994e400e52fe00e63214460405160405180910390a45050565b61124d612837565b611255612d4a565b565b600b6020528060005260406000206000915090508060000160009054906101000a900473ffffffffffffffffffffffffffffffffffffffff16908060010154908060020154908060030154908060040160009054906101000a900460ff16905085565b6000600760019054906101000a900473ffffffffffffffffffffffffffffffffffffffff16905090565b6060600180546112f39061415c565b80601f016020809104026020016040519081016040528092919081815260200182805461131f9061415c565b801561136c5780601f106113415761010080835404028352916020019161136c565b820191906000526020600020905b81548152906001019060200180831161134f57829003601f168201915b5050505050905090565b61137e6134f6565b600b60008381526020019081526020016000206040518060a00160405290816000820160009054906101000a900473ffffffffffffffffffffffffffffffffffffffff1673ffffffffffffffffffffffffffffffffffffffff1673ffffffffffffffffffffffffffffffffffffffff1681526020016001820154815260200160028201548152602001600382015481526020016004820160009054906101000a900460ff1615151515815250509050919050565b6060600c600083815260200190815260200160002080548060200260200160405190810160405280929190818152602001828054801561149157602002820191906000526020600020905b81548152602001906001019080831161147d575b50505050509050919050565b6114af6114a86123e8565b8383612dad565b5050565b6000600b600084815260200190815260200160002060040160009054906101000a900460ff166114e65760009050611589565b600d60009054906101000a900473ffffffffffffffffffffffffffffffffffffffff1673ffffffffffffffffffffffffffffffffffffffff1663318f50c98386866040518463ffffffff1660e01b815260040161154593929190614829565b602060405180830381865afa158015611562573d6000803e3d6000fd5b505050506040513d601f19601f820116820180604052508101906115869190614875565b90505b9392505050565b606061159a612955565b60028585905010156115e1576040517f08c379a00000000000000000000000000000000000000000000000000000000081526004016115d8906148ee565b60405180910390fd5b600073ffffffffffffffffffffffffffffffffffffffff168373ffffffffffffffffffffffffffffffffffffffff1603611650576040517f08c379a00000000000000000000000000000000000000000000000000000000081526004016116479061495a565b60405180910390fd5b60003373ffffffffffffffffffffffffffffffffffffffff166116728b610d65565b73ffffffffffffffffffffffffffffffffffffffff16149050806116df5761169b8a8a336114b3565b6116da576040517f08c379a00000000000000000000000000000000000000000000000000000000081526004016116d1906149c6565b60405180910390fd5b611723565b60008914611722576040517f08c379a000000000000000000000000000000000000000000000000000000000815260040161171990614a32565b60405180910390fd5b5b60008686600081811061173957611738614a52565b5b905060200201602081019061174e9190613bc5565b90508073ffffffffffffffffffffffffffffffffffffffff166323b872dd33308c6040518463ffffffff1660e01b815260040161178d93929190614a81565b6020604051808303816000875af11580156117ac573d6000803e3d6000fd5b505050506040513d601f19601f820116820180604052508101906117d09190614875565b61180f576040517f08c379a000000000000000000000000000000000000000000000000000000000815260040161180690614b04565b60405180910390fd5b888173ffffffffffffffffffffffffffffffffffffffff1663dd62ed3e30600e60009054906101000a900473ffffffffffffffffffffffffffffffffffffffff166040518363ffffffff1660e01b815260040161186d929190614b24565b602060405180830381865afa15801561188a573d6000803e3d6000fd5b505050506040513d601f19601f820116820180604052508101906118ae9190614b62565b1015611976578073ffffffffffffffffffffffffffffffffffffffff1663095ea7b3600e60009054906101000a900473ffffffffffffffffffffffffffffffffffffffff167fffffffffffffffffffffffffffffffffffffffffffffffffffffffffffffffff6040518363ffffffff1660e01b8152600401611931929190614b8f565b6020604051808303816000875af1158015611950573d6000803e3d6000fd5b505050506040513d601f19601f820116820180604052508101906119749190614875565b505b600e60009054906101000a900473ffffffffffffffffffffffffffffffffffffffff1673ffffffffffffffffffffffffffffffffffffffff166338ed17398a8a8a8a8a8a6040518763ffffffff1660e01b81526004016119db96959493929190614c6c565b6000604051808303816000875af11580156119fa573d6000803e3d6000fd5b505050506040513d6000823e3d601f19601f82011682018060405250810190611a239190614d8b565b92503373ffffffffffffffffffffffffffffffffffffffff168a8c7fa31f3c66b6021f38dd024b2942cadd9ae3db25d0b0385f3021c7af65744b5dcc8a8a6000818110611a7357611a72614a52565b5b9050602002016020810190611a889190613bc5565b8b8b60018e8e9050611a9a9190614e03565b818110611aaa57611aa9614a52565b5b9050602002016020810190611abf9190613bc5565b8e8960018b51611acf9190614e03565b81518110611ae057611adf614a52565b5b602002602001015142604051611afa959493929190614e37565b60405180910390a4505098975050505050505050565b6000611b1a612955565b6000600a60008581526020019081526020016000206040518060600160405290816000820160009054906101000a900473ffffffffffffffffffffffffffffffffffffffff1673ffffffffffffffffffffffffffffffffffffffff1673ffffffffffffffffffffffffffffffffffffffff168152602001600182018054611ba09061415c565b80601f0160208091040260200160405190810160405280929190818152602001828054611bcc9061415c565b8015611c195780601f10611bee57610100808354040283529160200191611c19565b820191906000526020600020905b815481529060010190602001808311611bfc57829003601f168201915b505050505081526020016002820154815250509050600073ffffffffffffffffffffffffffffffffffffffff16816000015173ffffffffffffffffffffffffffffffffffffffff1603611ca1576040517f08c379a0000000000000000000000000000000000000000000000000000000008152600401611c9890614ed6565b60405180910390fd5b60008311611ce4576040517f08c379a0000000000000000000000000000000000000000000000000000000008152600401611cdb90614f42565b60405180910390fd5b6000838260400151611cf69190614f62565b9050803414611d3a576040517f08c379a0000000000000000000000000000000000000000000000000000000008152600401611d3190614ff0565b60405180910390fd5b611d44600961299f565b611d4e60096129b5565b925060008442611d5e9190615010565b90506040518060a001604052803373ffffffffffffffffffffffffffffffffffffffff16815260200187815260200182815260200134815260200160011515815250600b600086815260200190815260200160002060008201518160000160006101000a81548173ffffffffffffffffffffffffffffffffffffffff021916908373ffffffffffffffffffffffffffffffffffffffff16021790555060208201518160010155604082015181600201556060820151816003015560808201518160040160006101000a81548160ff021916908315150217905550905050600c6000878152602001908152602001600020849080600181540180825580915050600190039060005260206000200160009091909190915055600d60009054906101000a900473ffffffffffffffffffffffffffffffffffffffff1673ffffffffffffffffffffffffffffffffffffffff166317ed4815338887856040518563ffffffff1660e01b8152600401611ed69493929190615044565b6020604051808303816000875af1158015611ef5573d6000803e3d6000fd5b505050506040513d601f19601f82011682018060405250810190611f199190614b62565b506000611f2587610d65565b905060008173ffffffffffffffffffffffffffffffffffffffff1634604051611f4d906150ba565b60006040518083038185875af1925050503d8060008114611f8a576040519150601f19603f3d011682016040523d82523d6000602084013e611f8f565b606091505b5050905080611fd3576040517f08c379a0000000000000000000000000000000000000000000000000000000008152600401611fca9061511b565b60405180910390fd5b3373ffffffffffffffffffffffffffffffffffffffff1688877fa07c24fa3075caf796342493c9a472d319328fc01fb916059f9ebb9683d864c7863460405161201d92919061513b565b60405180910390a4505050505092915050565b61204161203b6123e8565b836124a9565b612080576040517f08c379a000000000000000000000000000000000000000000000000000000000815260040161207790614323565b60405180910390fd5b61208c84848484612f19565b50505050565b606061209d8261239d565b60006006600084815260200190815260200160002080546120bd9061415c565b80601f01602080910402602001604051908101604052809291908181526020018280546120e99061415c565b80156121365780601f1061210b57610100808354040283529160200191612136565b820191906000526020600020905b81548152906001019060200180831161211957829003601f168201915b505050505090506000612147612f75565b9050600081510361215c57819250505061219f565b6000825111156121915780826040516020016121799291906151a0565b6040516020818303038152906040529250505061219f565b61219a84612f8c565b925050505b919050565b6000600560008473ffffffffffffffffffffffffffffffffffffffff1673ffffffffffffffffffffffffffffffffffffffff16815260200190815260200160002060008373ffffffffffffffffffffffffffffffffffffffff1673ffffffffffffffffffffffffffffffffffffffff16815260200190815260200160002060009054906101000a900460ff16905092915050565b612240612837565b600073ffffffffffffffffffffffffffffffffffffffff168173ffffffffffffffffffffffffffffffffffffffff16036122af576040517f08c379a00000000000000000000000000000000000000000000000000000000081526004016122a690615236565b60405180910390fd5b6122b881612c84565b50565b60007f80ac58cd000000000000000000000000000000000000000000000000000000007bffffffffffffffffffffffffffffffffffffffffffffffffffffffff1916827bffffffffffffffffffffffffffffffffffffffffffffffffffffffff1916148061238657507f5b5e139f000000000000000000000000000000000000000000000000000000007bffffffffffffffffffffffffffffffffffffffffffffffffffffffff1916827bffffffffffffffffffffffffffffffffffffffffffffffffffffffff1916145b80612396575061239582612ff4565b5b9050919050565b6123a68161305e565b6123e5576040517f08c379a00000000000000000000000000000000000000000000000000000000081526004016123dc9061438f565b60405180910390fd5b50565b600033905090565b816004600083815260200190815260200160002060006101000a81548173ffffffffffffffffffffffffffffffffffffffff021916908373ffffffffffffffffffffffffffffffffffffffff160217905550808273ffffffffffffffffffffffffffffffffffffffff1661246383610d65565b73ffffffffffffffffffffffffffffffffffffffff167f8c5be1e5ebec7d5bd14f71427d1e84f3dd0314c0f7b2291e5b200ac8c7c3b92560405160405180910390a45050565b6000806124b583610d65565b90508073ffffffffffffffffffffffffffffffffffffffff168473ffffffffffffffffffffffffffffffffffffffff1614806124f757506124f681856121a4565b5b8061253557508373ffffffffffffffffffffffffffffffffffffffff1661251d846108f8565b73ffffffffffffffffffffffffffffffffffffffff16145b91505092915050565b8273ffffffffffffffffffffffffffffffffffffffff1661255e82610d65565b73ffffffffffffffffffffffffffffffffffffffff16146125b4576040517f08c379a00000000000000000000000000000000000000000000000000000000081526004016125ab906152c8565b60405180910390fd5b600073ffffffffffffffffffffffffffffffffffffffff168273ffffffffffffffffffffffffffffffffffffffff1603612623576040517f08c379a000000000000000000000000000000000000000000000000000000000815260040161261a9061535a565b60405180910390fd5b612630838383600161309f565b8273ffffffffffffffffffffffffffffffffffffffff1661265082610d65565b73ffffffffffffffffffffffffffffffffffffffff16146126a6576040517f08c379a000000000000000000000000000000000000000000000000000000000815260040161269d906152c8565b60405180910390fd5b6004600082815260200190815260200160002060006101000a81549073ffffffffffffffffffffffffffffffffffffffff02191690556001600360008573ffffffffffffffffffffffffffffffffffffffff1673ffffffffffffffffffffffffffffffffffffffff168152602001908152602001600020600082825403925050819055506001600360008473ffffffffffffffffffffffffffffffffffffffff1673ffffffffffffffffffffffffffffffffffffffff16815260200190815260200160002060008282540192505081905550816002600083815260200190815260200160002060006101000a81548173ffffffffffffffffffffffffffffffffffffffff021916908373ffffffffffffffffffffffffffffffffffffffff160217905550808273ffffffffffffffffffffffffffffffffffffffff168473ffffffffffffffffffffffffffffffffffffffff167fddf252ad1be2c89b69c2b068fc378daa952ba7f163c4a11628f55a4df523b3ef60405160405180910390a461283283838360016130a5565b505050565b61283f6123e8565b73ffffffffffffffffffffffffffffffffffffffff1661285d6112ba565b73ffffffffffffffffffffffffffffffffffffffff16146128b3576040517f08c379a00000000000000000000000000000000000000000000000000000000081526004016128aa906153c6565b60405180910390fd5b565b6128bd6130ab565b6000600760006101000a81548160ff0219169083151502179055507f5db9ee0a495bf2e6ff9c91a7834c1ba4fdd244a5e8aa4e537bd38aeae4b073aa6129016123e8565b60405161290e9190613762565b60405180910390a1565b60006002600083815260200190815260200160002060009054906101000a900473ffffffffffffffffffffffffffffffffffffffff169050919050565b61295d610d4e565b1561299d576040517f08c379a000000000000000000000000000000000000000000000000000000000815260040161299490615432565b60405180910390fd5b565b6001816000016000828254019250508190555050565b600081600001549050919050565b600073ffffffffffffffffffffffffffffffffffffffff168273ffffffffffffffffffffffffffffffffffffffff1603612a32576040517f08c379a0000000000000000000000000000000000000000000000000000000008152600401612a299061549e565b60405180910390fd5b612a3b8161305e565b15612a7b576040517f08c379a0000000000000000000000000000000000000000000000000000000008152600401612a729061550a565b60405180910390fd5b612a8960008383600161309f565b612a928161305e565b15612ad2576040517f08c379a0000000000000000000000000000000000000000000000000000000008152600401612ac99061550a565b60405180910390fd5b6001600360008473ffffffffffffffffffffffffffffffffffffffff1673ffffffffffffffffffffffffffffffffffffffff16815260200190815260200160002060008282540192505081905550816002600083815260200190815260200160002060006101000a81548173ffffffffffffffffffffffffffffffffffffffff021916908373ffffffffffffffffffffffffffffffffffffffff160217905550808273ffffffffffffffffffffffffffffffffffffffff16600073ffffffffffffffffffffffffffffffffffffffff167fddf252ad1be2c89b69c2b068fc378daa952ba7f163c4a11628f55a4df523b3ef60405160405180910390a4612bdc6000838360016130a5565b5050565b612be98261305e565b612c28576040517f08c379a0000000000000000000000000000000000000000000000000000000008152600401612c1f9061559c565b60405180910390fd5b80600660008481526020019081526020016000209081612c4891906145bd565b507ff8e1a15aba9398e019f0b49df1a4fde98ee17ae345cb5f6b5e2c27f5033e8ce782604051612c789190613baa565b60405180910390a15050565b6000600760019054906101000a900473ffffffffffffffffffffffffffffffffffffffff16905081600760016101000a81548173ffffffffffffffffffffffffffffffffffffffff021916908373ffffffffffffffffffffffffffffffffffffffff1602179055508173ffffffffffffffffffffffffffffffffffffffff168173ffffffffffffffffffffffffffffffffffffffff167f8be0079c531659141344cd1fd0a4f28419497f9722a3daafe3b4186f6b6457e060405160405180910390a35050565b612d52612955565b6001600760006101000a81548160ff0219169083151502179055507f62e78cea01bee320cd4e420270b5ea74000d11b0c9f74754ebdbfc544b05a258612d966123e8565b604051612da39190613762565b60405180910390a1565b8173ffffffffffffffffffffffffffffffffffffffff168373ffffffffffffffffffffffffffffffffffffffff1603612e1b576040517f08c379a0000000000000000000000000000000000000000000000000000000008152600401612e1290615608565b60405180910390fd5b80600560008573ffffffffffffffffffffffffffffffffffffffff1673ffffffffffffffffffffffffffffffffffffffff16815260200190815260200160002060008473ffffffffffffffffffffffffffffffffffffffff1673ffffffffffffffffffffffffffffffffffffffff16815260200190815260200160002060006101000a81548160ff0219169083151502179055508173ffffffffffffffffffffffffffffffffffffffff168373ffffffffffffffffffffffffffffffffffffffff167f17307eab39ab6107e8899845ad3d59bd9653f200f220920489ca2b5937696c3183604051612f0c91906135f1565b60405180910390a3505050565b612f2484848461253e565b612f30848484846130f4565b612f6f576040517f08c379a0000000000000000000000000000000000000000000000000000000008152600401612f669061569a565b60405180910390fd5b50505050565b606060405180602001604052806000815250905090565b6060612f978261239d565b6000612fa1612f75565b90506000815111612fc15760405180602001604052806000815250612fec565b80612fcb8461327b565b604051602001612fdc9291906151a0565b6040516020818303038152906040525b915050919050565b60007f01ffc9a7000000000000000000000000000000000000000000000000000000007bffffffffffffffffffffffffffffffffffffffffffffffffffffffff1916827bffffffffffffffffffffffffffffffffffffffffffffffffffffffff1916149050919050565b60008073ffffffffffffffffffffffffffffffffffffffff1661308083612918565b73ffffffffffffffffffffffffffffffffffffffff1614159050919050565b50505050565b50505050565b6130b3610d4e565b6130f2576040517f08c379a00000000000000000000000000000000000000000000000000000000081526004016130e990615706565b60405180910390fd5b565b60006131158473ffffffffffffffffffffffffffffffffffffffff16613349565b1561326e578373ffffffffffffffffffffffffffffffffffffffff1663150b7a0261313e6123e8565b8786866040518563ffffffff1660e01b8152600401613160949392919061577b565b6020604051808303816000875af192505050801561319c57506040513d601f19601f8201168201806040525081019061319991906157dc565b60015b61321e573d80600081146131cc576040519150601f19603f3d011682016040523d82523d6000602084013e6131d1565b606091505b506000815103613216576040517f08c379a000000000000000000000000000000000000000000000000000000000815260040161320d9061569a565b60405180910390fd5b805181602001fd5b63150b7a0260e01b7bffffffffffffffffffffffffffffffffffffffffffffffffffffffff1916817bffffffffffffffffffffffffffffffffffffffffffffffffffffffff191614915050613273565b600190505b949350505050565b60606000600161328a8461336c565b01905060008167ffffffffffffffff8111156132a9576132a8613a23565b5b6040519080825280601f01601f1916602001820160405280156132db5781602001600182028036833780820191505090505b509050600082602001820190505b60011561333e578080600190039150507f3031323334353637383961626364656600000000000000000000000000000000600a86061a8153600a858161333257613331615809565b5b049450600085036132e9575b819350505050919050565b6000808273ffffffffffffffffffffffffffffffffffffffff163b119050919050565b600080600090507a184f03e93ff9f4daa797ed6e38ed64bf6a1f01000000000000000083106133ca577a184f03e93ff9f4daa797ed6e38ed64bf6a1f01000000000000000083816133c0576133bf615809565b5b0492506040810190505b6d04ee2d6d415b85acef81000000008310613407576d04ee2d6d415b85acef810000000083816133fd576133fc615809565b5b0492506020810190505b662386f26fc10000831061343657662386f26fc10000838161342c5761342b615809565b5b0492506010810190505b6305f5e100831061345f576305f5e100838161345557613454615809565b5b0492506008810190505b612710831061348457612710838161347a57613479615809565b5b0492506004810190505b606483106134a7576064838161349d5761349c615809565b5b0492506002810190505b600a83106134b6576001810190505b80915050919050565b6040518060600160405280600073ffffffffffffffffffffffffffffffffffffffff16815260200160608152602001600081525090565b6040518060a00160405280600073ffffffffffffffffffffffffffffffffffffffff1681526020016000815260200160008152602001600081526020016000151581525090565b6000604051905090565b600080fd5b600080fd5b60007fffffffff0000000000000000000000000000000000000000000000000000000082169050919050565b61358681613551565b811461359157600080fd5b50565b6000813590506135a38161357d565b92915050565b6000602082840312156135bf576135be613547565b5b60006135cd84828501613594565b91505092915050565b60008115159050919050565b6135eb816135d6565b82525050565b600060208201905061360660008301846135e2565b92915050565b600081519050919050565b600082825260208201905092915050565b60005b8381101561364657808201518184015260208101905061362b565b60008484015250505050565b6000601f19601f8301169050919050565b600061366e8261360c565b6136788185613617565b9350613688818560208601613628565b61369181613652565b840191505092915050565b600060208201905081810360008301526136b68184613663565b905092915050565b6000819050919050565b6136d1816136be565b81146136dc57600080fd5b50565b6000813590506136ee816136c8565b92915050565b60006020828403121561370a57613709613547565b5b6000613718848285016136df565b91505092915050565b600073ffffffffffffffffffffffffffffffffffffffff82169050919050565b600061374c82613721565b9050919050565b61375c81613741565b82525050565b60006020820190506137776000830184613753565b92915050565b61378681613741565b811461379157600080fd5b50565b6000813590506137a38161377d565b92915050565b600080604083850312156137c0576137bf613547565b5b60006137ce85828601613794565b92505060206137df858286016136df565b9150509250929050565b6000819050919050565b600061380e61380961380484613721565b6137e9565b613721565b9050919050565b6000613820826137f3565b9050919050565b600061383282613815565b9050919050565b61384281613827565b82525050565b600060208201905061385d6000830184613839565b92915050565b60008060006060848603121561387c5761387b613547565b5b600061388a86828701613794565b935050602061389b86828701613794565b92505060406138ac868287016136df565b9150509250925092565b6138bf81613741565b82525050565b600082825260208201905092915050565b60006138e18261360c565b6138eb81856138c5565b93506138fb818560208601613628565b61390481613652565b840191505092915050565b613918816136be565b82525050565b600060608301600083015161393660008601826138b6565b506020830151848203602086015261394e82826138d6565b9150506040830151613963604086018261390f565b508091505092915050565b60006020820190508181036000830152613988818461391e565b905092915050565b600061399b82613815565b9050919050565b6139ab81613990565b82525050565b60006020820190506139c660008301846139a2565b92915050565b6139d5816136be565b82525050565b60006060820190506139f06000830186613753565b8181036020830152613a028185613663565b9050613a1160408301846139cc565b949350505050565b600080fd5b600080fd5b7f4e487b7100000000000000000000000000000000000000000000000000000000600052604160045260246000fd5b613a5b82613652565b810181811067ffffffffffffffff82111715613a7a57613a79613a23565b5b80604052505050565b6000613a8d61353d565b9050613a998282613a52565b919050565b600067ffffffffffffffff821115613ab957613ab8613a23565b5b613ac282613652565b9050602081019050919050565b82818337600083830152505050565b6000613af1613aec84613a9e565b613a83565b905082815260208101848484011115613b0d57613b0c613a1e565b5b613b18848285613acf565b509392505050565b600082601f830112613b3557613b34613a19565b5b8135613b45848260208601613ade565b91505092915050565b60008060408385031215613b6557613b64613547565b5b600083013567ffffffffffffffff811115613b8357613b8261354c565b5b613b8f85828601613b20565b9250506020613ba0858286016136df565b9150509250929050565b6000602082019050613bbf60008301846139cc565b92915050565b600060208284031215613bdb57613bda613547565b5b6000613be984828501613794565b91505092915050565b600060a082019050613c076000830188613753565b613c1460208301876139cc565b613c2160408301866139cc565b613c2e60608301856139cc565b613c3b60808301846135e2565b9695505050505050565b613c4e816135d6565b82525050565b60a082016000820151613c6a60008501826138b6565b506020820151613c7d602085018261390f565b506040820151613c90604085018261390f565b506060820151613ca3606085018261390f565b506080820151613cb66080850182613c45565b50505050565b600060a082019050613cd16000830184613c54565b92915050565b600081519050919050565b600082825260208201905092915050565b6000819050602082019050919050565b6000613d0f838361390f565b60208301905092915050565b6000602082019050919050565b6000613d3382613cd7565b613d3d8185613ce2565b9350613d4883613cf3565b8060005b83811015613d79578151613d608882613d03565b9750613d6b83613d1b565b925050600181019050613d4c565b5085935050505092915050565b60006020820190508181036000830152613da08184613d28565b905092915050565b613db1816135d6565b8114613dbc57600080fd5b50565b600081359050613dce81613da8565b92915050565b60008060408385031215613deb57613dea613547565b5b6000613df985828601613794565b9250506020613e0a85828601613dbf565b9150509250929050565b600080600060608486031215613e2d57613e2c613547565b5b6000613e3b868287016136df565b9350506020613e4c868287016136df565b9250506040613e5d86828701613794565b9150509250925092565b600080fd5b600080fd5b60008083601f840112613e8757613e86613a19565b5b8235905067ffffffffffffffff811115613ea457613ea3613e67565b5b602083019150836020820283011115613ec057613ebf613e6c565b5b9250929050565b60008060008060008060008060e0898b031215613ee757613ee6613547565b5b6000613ef58b828c016136df565b9850506020613f068b828c016136df565b9750506040613f178b828c016136df565b9650506060613f288b828c016136df565b955050608089013567ffffffffffffffff811115613f4957613f4861354c565b5b613f558b828c01613e71565b945094505060a0613f688b828c01613794565b92505060c0613f798b828c016136df565b9150509295985092959890939650565b60008060408385031215613fa057613f9f613547565b5b6000613fae858286016136df565b9250506020613fbf858286016136df565b9150509250929050565b600067ffffffffffffffff821115613fe457613fe3613a23565b5b613fed82613652565b9050602081019050919050565b600061400d61400884613fc9565b613a83565b90508281526020810184848401111561402957614028613a1e565b5b614034848285613acf565b509392505050565b600082601f83011261405157614050613a19565b5b8135614061848260208601613ffa565b91505092915050565b6000806000806080858703121561408457614083613547565b5b600061409287828801613794565b94505060206140a387828801613794565b93505060406140b4878288016136df565b925050606085013567ffffffffffffffff8111156140d5576140d461354c565b5b6140e18782880161403c565b91505092959194509250565b6000806040838503121561410457614103613547565b5b600061411285828601613794565b925050602061412385828601613794565b9150509250929050565b7f4e487b7100000000000000000000000000000000000000000000000000000000600052602260045260246000fd5b6000600282049050600182168061417457607f821691505b6020821081036141875761418661412d565b5b50919050565b7f4552433732313a20617070726f76616c20746f2063757272656e74206f776e6560008201527f7200000000000000000000000000000000000000000000000000000000000000602082015250565b60006141e9602183613617565b91506141f48261418d565b604082019050919050565b60006020820190508181036000830152614218816141dc565b9050919050565b7f4552433732313a20617070726f76652063616c6c6572206973206e6f7420746f60008201527f6b656e206f776e6572206f7220617070726f76656420666f7220616c6c000000602082015250565b600061427b603d83613617565b91506142868261421f565b604082019050919050565b600060208201905081810360008301526142aa8161426e565b9050919050565b7f4552433732313a2063616c6c6572206973206e6f7420746f6b656e206f776e6560008201527f72206f7220617070726f76656400000000000000000000000000000000000000602082015250565b600061430d602d83613617565b9150614318826142b1565b604082019050919050565b6000602082019050818103600083015261433c81614300565b9050919050565b7f4552433732313a20696e76616c696420746f6b656e2049440000000000000000600082015250565b6000614379601883613617565b915061438482614343565b602082019050919050565b600060208201905081810360008301526143a88161436c565b9050919050565b7f4c656173652072617465206d757374206265203e203000000000000000000000600082015250565b60006143e5601683613617565b91506143f0826143af565b602082019050919050565b60006020820190508181036000830152614414816143d8565b9050919050565b60008190508160005260206000209050919050565b60006020601f8301049050919050565b600082821b905092915050565b60006008830261447d7fffffffffffffffffffffffffffffffffffffffffffffffffffffffffffffffff82614440565b6144878683614440565b95508019841693508086168417925050509392505050565b60006144ba6144b56144b0846136be565b6137e9565b6136be565b9050919050565b6000819050919050565b6144d48361449f565b6144e86144e0826144c1565b84845461444d565b825550505050565b600090565b6144fd6144f0565b6145088184846144cb565b505050565b5b8181101561452c576145216000826144f5565b60018101905061450e565b5050565b601f821115614571576145428161441b565b61454b84614430565b8101602085101561455a578190505b61456e61456685614430565b83018261450d565b50505b505050565b600082821c905092915050565b600061459460001984600802614576565b1980831691505092915050565b60006145ad8383614583565b9150826002028217905092915050565b6145c68261360c565b67ffffffffffffffff8111156145df576145de613a23565b5b6145e9825461415c565b6145f4828285614530565b600060209050601f8311600181146146275760008415614615578287015190505b61461f85826145a1565b865550614687565b601f1984166146358661441b565b60005b8281101561465d57848901518255600182019150602085019450602081019050614638565b8683101561467a5784890151614676601f891682614583565b8355505b6001600288020188555050505b505050505050565b600060408201905081810360008301526146a98185613663565b90506146b860208301846139cc565b9392505050565b7f4552433732313a2061646472657373207a65726f206973206e6f74206120766160008201527f6c6964206f776e65720000000000000000000000000000000000000000000000602082015250565b600061471b602983613617565b9150614726826146bf565b604082019050919050565b6000602082019050818103600083015261474a8161470e565b9050919050565b7f4c6561736520696e616374697665000000000000000000000000000000000000600082015250565b6000614787600e83613617565b915061479282614751565b602082019050919050565b600060208201905081810360008301526147b68161477a565b9050919050565b7f4f6e6c79206167656e74206f776e65722063616e207265766f6b650000000000600082015250565b60006147f3601b83613617565b91506147fe826147bd565b602082019050919050565b60006020820190508181036000830152614822816147e6565b9050919050565b600060608201905061483e6000830186613753565b61484b60208301856139cc565b61485860408301846139cc565b949350505050565b60008151905061486f81613da8565b92915050565b60006020828403121561488b5761488a613547565b5b600061489984828501614860565b91505092915050565b7f496e76616c696420706174680000000000000000000000000000000000000000600082015250565b60006148d8600c83613617565b91506148e3826148a2565b602082019050919050565b60006020820190508181036000830152614907816148cb565b9050919050565b7f526563697069656e742063616e6e6f74206265207a65726f0000000000000000600082015250565b6000614944601883613617565b915061494f8261490e565b602082019050919050565b6000602082019050818103600083015261497381614937565b9050919050565b7f4e6f7420617574686f72697a656420746f206578656375746520737761707300600082015250565b60006149b0601f83613617565b91506149bb8261497a565b602082019050919050565b600060208201905081810360008301526149df816149a3565b9050919050565b7f4f776e657273206d75737420757365206c6561736549643d3000000000000000600082015250565b6000614a1c601983613617565b9150614a27826149e6565b602082019050919050565b60006020820190508181036000830152614a4b81614a0f565b9050919050565b7f4e487b7100000000000000000000000000000000000000000000000000000000600052603260045260246000fd5b6000606082019050614a966000830186613753565b614aa36020830185613753565b614ab060408301846139cc565b949350505050565b7f546f6b656e496e207472616e73666572206661696c6564000000000000000000600082015250565b6000614aee601783613617565b9150614af982614ab8565b602082019050919050565b60006020820190508181036000830152614b1d81614ae1565b9050919050565b6000604082019050614b396000830185613753565b614b466020830184613753565b9392505050565b600081519050614b5c816136c8565b92915050565b600060208284031215614b7857614b77613547565b5b6000614b8684828501614b4d565b91505092915050565b6000604082019050614ba46000830185613753565b614bb160208301846139cc565b9392505050565b600082825260208201905092915050565b6000819050919050565b6000614bdf83836138b6565b60208301905092915050565b6000614bfa6020840184613794565b905092915050565b6000602082019050919050565b6000614c1b8385614bb8565b9350614c2682614bc9565b8060005b85811015614c5f57614c3c8284614beb565b614c468882614bd3565b9750614c5183614c02565b925050600181019050614c2a565b5085925050509392505050565b600060a082019050614c8160008301896139cc565b614c8e60208301886139cc565b8181036040830152614ca1818688614c0f565b9050614cb06060830185613753565b614cbd60808301846139cc565b979650505050505050565b600067ffffffffffffffff821115614ce357614ce2613a23565b5b602082029050602081019050919050565b6000614d07614d0284614cc8565b613a83565b90508083825260208201905060208402830185811115614d2a57614d29613e6c565b5b835b81811015614d535780614d3f8882614b4d565b845260208401935050602081019050614d2c565b5050509392505050565b600082601f830112614d7257614d71613a19565b5b8151614d82848260208601614cf4565b91505092915050565b600060208284031215614da157614da0613547565b5b600082015167ffffffffffffffff811115614dbf57614dbe61354c565b5b614dcb84828501614d5d565b91505092915050565b7f4e487b7100000000000000000000000000000000000000000000000000000000600052601160045260246000fd5b6000614e0e826136be565b9150614e19836136be565b9250828203905081811115614e3157614e30614dd4565b5b92915050565b600060a082019050614e4c6000830188613753565b614e596020830187613753565b614e6660408301866139cc565b614e7360608301856139cc565b614e8060808301846139cc565b9695505050505050565b7f4167656e7420646f6573206e6f74206578697374000000000000000000000000600082015250565b6000614ec0601483613617565b9150614ecb82614e8a565b602082019050919050565b60006020820190508181036000830152614eef81614eb3565b9050919050565b7f4c65617365206475726174696f6e206d757374206265203e2030000000000000600082015250565b6000614f2c601a83613617565b9150614f3782614ef6565b602082019050919050565b60006020820190508181036000830152614f5b81614f1f565b9050919050565b6000614f6d826136be565b9150614f78836136be565b9250828202614f86816136be565b91508282048414831517614f9d57614f9c614dd4565b5b5092915050565b7f496e636f7272656374204554482073656e7420666f72206c656173696e670000600082015250565b6000614fda601e83613617565b9150614fe582614fa4565b602082019050919050565b6000602082019050818103600083015261500981614fcd565b9050919050565b600061501b826136be565b9150615026836136be565b925082820190508082111561503e5761503d614dd4565b5b92915050565b60006080820190506150596000830187613753565b61506660208301866139cc565b61507360408301856139cc565b61508060608301846139cc565b95945050505050565b600081905092915050565b50565b60006150a4600083615089565b91506150af82615094565b600082019050919050565b60006150c582615097565b9150819050919050565b7f4661696c656420746f20666f7277617264206c65617365207061796d656e7400600082015250565b6000615105601f83613617565b9150615110826150cf565b602082019050919050565b60006020820190508181036000830152615134816150f8565b9050919050565b600060408201905061515060008301856139cc565b61515d60208301846139cc565b9392505050565b600081905092915050565b600061517a8261360c565b6151848185615164565b9350615194818560208601613628565b80840191505092915050565b60006151ac828561516f565b91506151b8828461516f565b91508190509392505050565b7f4f776e61626c653a206e6577206f776e657220697320746865207a65726f206160008201527f6464726573730000000000000000000000000000000000000000000000000000602082015250565b6000615220602683613617565b915061522b826151c4565b604082019050919050565b6000602082019050818103600083015261524f81615213565b9050919050565b7f4552433732313a207472616e736665722066726f6d20696e636f72726563742060008201527f6f776e6572000000000000000000000000000000000000000000000000000000602082015250565b60006152b2602583613617565b91506152bd82615256565b604082019050919050565b600060208201905081810360008301526152e1816152a5565b9050919050565b7f4552433732313a207472616e7366657220746f20746865207a65726f2061646460008201527f7265737300000000000000000000000000000000000000000000000000000000602082015250565b6000615344602483613617565b915061534f826152e8565b604082019050919050565b6000602082019050818103600083015261537381615337565b9050919050565b7f4f776e61626c653a2063616c6c6572206973206e6f7420746865206f776e6572600082015250565b60006153b0602083613617565b91506153bb8261537a565b602082019050919050565b600060208201905081810360008301526153df816153a3565b9050919050565b7f5061757361626c653a2070617573656400000000000000000000000000000000600082015250565b600061541c601083613617565b9150615427826153e6565b602082019050919050565b6000602082019050818103600083015261544b8161540f565b9050919050565b7f4552433732313a206d696e7420746f20746865207a65726f2061646472657373600082015250565b6000615488602083613617565b915061549382615452565b602082019050919050565b600060208201905081810360008301526154b78161547b565b9050919050565b7f4552433732313a20746f6b656e20616c7265616479206d696e74656400000000600082015250565b60006154f4601c83613617565b91506154ff826154be565b602082019050919050565b60006020820190508181036000830152615523816154e7565b9050919050565b7f45524337323155524953746f726167653a2055524920736574206f66206e6f6e60008201527f6578697374656e7420746f6b656e000000000000000000000000000000000000602082015250565b6000615586602e83613617565b91506155918261552a565b604082019050919050565b600060208201905081810360008301526155b581615579565b9050919050565b7f4552433732313a20617070726f766520746f2063616c6c657200000000000000600082015250565b60006155f2601983613617565b91506155fd826155bc565b602082019050919050565b60006020820190508181036000830152615621816155e5565b9050919050565b7f4552433732313a207472616e7366657220746f206e6f6e20455243373231526560008201527f63656976657220696d706c656d656e7465720000000000000000000000000000602082015250565b6000615684603283613617565b915061568f82615628565b604082019050919050565b600060208201905081810360008301526156b381615677565b9050919050565b7f5061757361626c653a206e6f7420706175736564000000000000000000000000600082015250565b60006156f0601483613617565b91506156fb826156ba565b602082019050919050565b6000602082019050818103600083015261571f816156e3565b9050919050565b600081519050919050565b600082825260208201905092915050565b600061574d82615726565b6157578185615731565b9350615767818560208601613628565b61577081613652565b840191505092915050565b60006080820190506157906000830187613753565b61579d6020830186613753565b6157aa60408301856139cc565b81810360608301526157bc8184615742565b905095945050505050565b6000815190506157d68161357d565b92915050565b6000602082840312156157f2576157f1613547565b5b6000615800848285016157c7565b91505092915050565b7f4e487b7100000000000000000000000000000000000000000000000000000000600052601260045260246000fdfea26469706673582212204421c116ee534cc781114b41fbd48a44ecb814d20e320aa59032803831f4a2b664736f6c6343000813003360806040523480156200001157600080fd5b506040518060200160405280600081525062000033816200005a60201b60201c565b5062000054620000486200006f60201b60201c565b6200007760201b60201c565b6200049e565b80600290816200006b9190620003b7565b5050565b600033905090565b6000600360009054906101000a900473ffffffffffffffffffffffffffffffffffffffff16905081600360006101000a81548173ffffffffffffffffffffffffffffffffffffffff021916908373ffffffffffffffffffffffffffffffffffffffff1602179055508173ffffffffffffffffffffffffffffffffffffffff168173ffffffffffffffffffffffffffffffffffffffff167f8be0079c531659141344cd1fd0a4f28419497f9722a3daafe3b4186f6b6457e060405160405180910390a35050565b600081519050919050565b7f4e487b7100000000000000000000000000000000000000000000000000000000600052604160045260246000fd5b7f4e487b7100000000000000000000000000000000000000000000000000000000600052602260045260246000fd5b60006002820490506001821680620001bf57607f821691505b602082108103620001d557620001d462000177565b5b50919050565b60008190508160005260206000209050919050565b60006020601f8301049050919050565b600082821b905092915050565b6000600883026200023f7fffffffffffffffffffffffffffffffffffffffffffffffffffffffffffffffff8262000200565b6200024b868362000200565b95508019841693508086168417925050509392505050565b6000819050919050565b6000819050919050565b600062000298620002926200028c8462000263565b6200026d565b62000263565b9050919050565b6000819050919050565b620002b48362000277565b620002cc620002c3826200029f565b8484546200020d565b825550505050565b600090565b620002e3620002d4565b620002f0818484620002a9565b505050565b5b8181101562000318576200030c600082620002d9565b600181019050620002f6565b5050565b601f82111562000367576200033181620001db565b6200033c84620001f0565b810160208510156200034c578190505b620003646200035b85620001f0565b830182620002f5565b50505b505050565b600082821c905092915050565b60006200038c600019846008026200036c565b1980831691505092915050565b6000620003a7838362000379565b9150826002028217905092915050565b620003c2826200013d565b67ffffffffffffffff811115620003de57620003dd62000148565b5b620003ea8254620001a6565b620003f78282856200031c565b600060209050601f8311600181146200042f57600084156200041a578287015190505b62000426858262000399565b86555062000496565b601f1984166200043f86620001db565b60005b82811015620004695784890151825560018201915060208501945060208101905062000442565b8683101562000489578489015162000485601f89168262000379565b8355505b6001600288020188555050505b505050505050565b61330f80620004ae6000396000f3fe608060405234801561001057600080fd5b50600436106100ff5760003560e01c80638a2605a711610097578063e985e9c511610066578063e985e9c5146102d0578063ebd46d6414610300578063f242432a14610330578063f2fde38b1461034c576100ff565b80638a2605a71461024a5780638da5cb5b146102665780639915e8fb14610284578063a22cb465146102b4576100ff565b80632eb2c2d6116100d35780632eb2c2d6146101c4578063318f50c9146101e05780634e1273f414610210578063715018a614610240576100ff565b8062fdd58e1461010457806301ffc9a7146101345780630e89341c1461016457806317ed481514610194575b600080fd5b61011e60048036038101906101199190611cfa565b610368565b60405161012b9190611d49565b60405180910390f35b61014e60048036038101906101499190611dbc565b610430565b60405161015b9190611e04565b60405180910390f35b61017e60048036038101906101799190611e1f565b610512565b60405161018b9190611edc565b60405180910390f35b6101ae60048036038101906101a99190611efe565b6105a6565b6040516101bb9190611d49565b60405180910390f35b6101de60048036038101906101d99190612162565b6106af565b005b6101fa60048036038101906101f59190612231565b610750565b6040516102079190611e04565b60405180910390f35b61022a60048036038101906102259190612347565b610794565b604051610237919061247d565b60405180910390f35b6102486108ad565b005b610264600480360381019061025f9190612231565b6108c1565b005b61026e610902565b60405161027b91906124ae565b60405180910390f35b61029e60048036038101906102999190611e1f565b61092c565b6040516102ab9190611d49565b60405180910390f35b6102ce60048036038101906102c991906124f5565b610944565b005b6102ea60048036038101906102e59190612535565b61095a565b6040516102f79190611e04565b60405180910390f35b61031a60048036038101906103159190612575565b6109ee565b6040516103279190611d49565b60405180910390f35b61034a600480360381019061034591906125b5565b6109ff565b005b6103666004803603810190610361919061264c565b610aa0565b005b60008073ffffffffffffffffffffffffffffffffffffffff168373ffffffffffffffffffffffffffffffffffffffff16036103d8576040517f08c379a00000000000000000000000000000000000000000000000000000000081526004016103cf906126eb565b60405180910390fd5b60008083815260200190815260200160002060008473ffffffffffffffffffffffffffffffffffffffff1673ffffffffffffffffffffffffffffffffffffffff16815260200190815260200160002054905092915050565b60007fd9b67a26000000000000000000000000000000000000000000000000000000007bffffffffffffffffffffffffffffffffffffffffffffffffffffffff1916827bffffffffffffffffffffffffffffffffffffffffffffffffffffffff191614806104fb57507f0e89341c000000000000000000000000000000000000000000000000000000007bffffffffffffffffffffffffffffffffffffffffffffffffffffffff1916827bffffffffffffffffffffffffffffffffffffffffffffffffffffffff1916145b8061050b575061050a82610b23565b5b9050919050565b6060600280546105219061273a565b80601f016020809104026020016040519081016040528092919081815260200182805461054d9061273a565b801561059a5780601f1061056f5761010080835404028352916020019161059a565b820191906000526020600020905b81548152906001019060200180831161057d57829003601f168201915b50505050509050919050565b60006105b0610b8d565b600073ffffffffffffffffffffffffffffffffffffffff168573ffffffffffffffffffffffffffffffffffffffff160361061f576040517f08c379a0000000000000000000000000000000000000000000000000000000008152600401610616906127b7565b60405180910390fd5b428211610661576040517f08c379a000000000000000000000000000000000000000000000000000000000815260040161065890612823565b60405180910390fd5b600061066d85856109ee565b90508260046000838152602001908152602001600020819055506106a38682600160405180602001604052806000815250610c0b565b80915050949350505050565b6106b7610dbb565b73ffffffffffffffffffffffffffffffffffffffff168573ffffffffffffffffffffffffffffffffffffffff1614806106fd57506106fc856106f7610dbb565b61095a565b5b61073c576040517f08c379a0000000000000000000000000000000000000000000000000000000008152600401610733906128b5565b60405180910390fd5b6107498585858585610dc3565b5050505050565b60008061075d84846109ee565b9050600061076b8683610368565b11801561078a5750426004600083815260200190815260200160002054115b9150509392505050565b606081518351146107da576040517f08c379a00000000000000000000000000000000000000000000000000000000081526004016107d190612947565b60405180910390fd5b6000835167ffffffffffffffff8111156107f7576107f6611f6a565b5b6040519080825280602002602001820160405280156108255781602001602082028036833780820191505090505b50905060005b84518110156108a25761087285828151811061084a57610849612967565b5b602002602001015185838151811061086557610864612967565b5b6020026020010151610368565b82828151811061088557610884612967565b5b6020026020010181815250508061089b906129c5565b905061082b565b508091505092915050565b6108b5610b8d565b6108bf60006110e4565b565b6108c9610b8d565b60006108d583836109ee565b9050600060046000838152602001908152602001600020819055506108fc848260016111aa565b50505050565b6000600360009054906101000a900473ffffffffffffffffffffffffffffffffffffffff16905090565b60046020528060005260406000206000915090505481565b61095661094f610dbb565b83836113f0565b5050565b6000600160008473ffffffffffffffffffffffffffffffffffffffff1673ffffffffffffffffffffffffffffffffffffffff16815260200190815260200160002060008373ffffffffffffffffffffffffffffffffffffffff1673ffffffffffffffffffffffffffffffffffffffff16815260200190815260200160002060009054906101000a900460ff16905092915050565b600081608084901b17905092915050565b610a07610dbb565b73ffffffffffffffffffffffffffffffffffffffff168573ffffffffffffffffffffffffffffffffffffffff161480610a4d5750610a4c85610a47610dbb565b61095a565b5b610a8c576040517f08c379a0000000000000000000000000000000000000000000000000000000008152600401610a83906128b5565b60405180910390fd5b610a99858585858561155c565b5050505050565b610aa8610b8d565b600073ffffffffffffffffffffffffffffffffffffffff168173ffffffffffffffffffffffffffffffffffffffff1603610b17576040517f08c379a0000000000000000000000000000000000000000000000000000000008152600401610b0e90612a7f565b60405180910390fd5b610b20816110e4565b50565b60007f01ffc9a7000000000000000000000000000000000000000000000000000000007bffffffffffffffffffffffffffffffffffffffffffffffffffffffff1916827bffffffffffffffffffffffffffffffffffffffffffffffffffffffff1916149050919050565b610b95610dbb565b73ffffffffffffffffffffffffffffffffffffffff16610bb3610902565b73ffffffffffffffffffffffffffffffffffffffff1614610c09576040517f08c379a0000000000000000000000000000000000000000000000000000000008152600401610c0090612aeb565b60405180910390fd5b565b600073ffffffffffffffffffffffffffffffffffffffff168473ffffffffffffffffffffffffffffffffffffffff1603610c7a576040517f08c379a0000000000000000000000000000000000000000000000000000000008152600401610c7190612b7d565b60405180910390fd5b6000610c84610dbb565b90506000610c91856117f7565b90506000610c9e856117f7565b9050610caf83600089858589611871565b8460008088815260200190815260200160002060008973ffffffffffffffffffffffffffffffffffffffff1673ffffffffffffffffffffffffffffffffffffffff1681526020019081526020016000206000828254610d0e9190612b9d565b925050819055508673ffffffffffffffffffffffffffffffffffffffff16600073ffffffffffffffffffffffffffffffffffffffff168473ffffffffffffffffffffffffffffffffffffffff167fc3d58168c5ae7397731d063d5bbf3d657854427343f4c083240f7aacaa2d0f628989604051610d8c929190612bd1565b60405180910390a4610da383600089858589611879565b610db283600089898989611881565b50505050505050565b600033905090565b8151835114610e07576040517f08c379a0000000000000000000000000000000000000000000000000000000008152600401610dfe90612c6c565b60405180910390fd5b600073ffffffffffffffffffffffffffffffffffffffff168473ffffffffffffffffffffffffffffffffffffffff1603610e76576040517f08c379a0000000000000000000000000000000000000000000000000000000008152600401610e6d90612cfe565b60405180910390fd5b6000610e80610dbb565b9050610e90818787878787611871565b60005b8451811015611041576000858281518110610eb157610eb0612967565b5b602002602001015190506000858381518110610ed057610ecf612967565b5b60200260200101519050600080600084815260200190815260200160002060008b73ffffffffffffffffffffffffffffffffffffffff1673ffffffffffffffffffffffffffffffffffffffff16815260200190815260200160002054905081811015610f71576040517f08c379a0000000000000000000000000000000000000000000000000000000008152600401610f6890612d90565b60405180910390fd5b81810360008085815260200190815260200160002060008c73ffffffffffffffffffffffffffffffffffffffff1673ffffffffffffffffffffffffffffffffffffffff168152602001908152602001600020819055508160008085815260200190815260200160002060008b73ffffffffffffffffffffffffffffffffffffffff1673ffffffffffffffffffffffffffffffffffffffff16815260200190815260200160002060008282546110269190612b9d565b925050819055505050508061103a906129c5565b9050610e93565b508473ffffffffffffffffffffffffffffffffffffffff168673ffffffffffffffffffffffffffffffffffffffff168273ffffffffffffffffffffffffffffffffffffffff167f4a39dc06d4c0dbc64b70af90fd698a233a518aa5d07e595d983b8c0526c8f7fb87876040516110b8929190612db0565b60405180910390a46110ce818787878787611879565b6110dc818787878787611a58565b505050505050565b6000600360009054906101000a900473ffffffffffffffffffffffffffffffffffffffff16905081600360006101000a81548173ffffffffffffffffffffffffffffffffffffffff021916908373ffffffffffffffffffffffffffffffffffffffff1602179055508173ffffffffffffffffffffffffffffffffffffffff168173ffffffffffffffffffffffffffffffffffffffff167f8be0079c531659141344cd1fd0a4f28419497f9722a3daafe3b4186f6b6457e060405160405180910390a35050565b600073ffffffffffffffffffffffffffffffffffffffff168373ffffffffffffffffffffffffffffffffffffffff1603611219576040517f08c379a000000000000000000000000000000000000000000000000000000000815260040161121090612e59565b60405180910390fd5b6000611223610dbb565b90506000611230846117f7565b9050600061123d846117f7565b905061125d83876000858560405180602001604052806000815250611871565b600080600087815260200190815260200160002060008873ffffffffffffffffffffffffffffffffffffffff1673ffffffffffffffffffffffffffffffffffffffff168152602001908152602001600020549050848110156112f4576040517f08c379a00000000000000000000000000000000000000000000000000000000081526004016112eb90612eeb565b60405180910390fd5b84810360008088815260200190815260200160002060008973ffffffffffffffffffffffffffffffffffffffff1673ffffffffffffffffffffffffffffffffffffffff16815260200190815260200160002081905550600073ffffffffffffffffffffffffffffffffffffffff168773ffffffffffffffffffffffffffffffffffffffff168573ffffffffffffffffffffffffffffffffffffffff167fc3d58168c5ae7397731d063d5bbf3d657854427343f4c083240f7aacaa2d0f6289896040516113c1929190612bd1565b60405180910390a46113e784886000868660405180602001604052806000815250611879565b50505050505050565b8173ffffffffffffffffffffffffffffffffffffffff168373ffffffffffffffffffffffffffffffffffffffff160361145e576040517f08c379a000000000000000000000000000000000000000000000000000000000815260040161145590612f7d565b60405180910390fd5b80600160008573ffffffffffffffffffffffffffffffffffffffff1673ffffffffffffffffffffffffffffffffffffffff16815260200190815260200160002060008473ffffffffffffffffffffffffffffffffffffffff1673ffffffffffffffffffffffffffffffffffffffff16815260200190815260200160002060006101000a81548160ff0219169083151502179055508173ffffffffffffffffffffffffffffffffffffffff168373ffffffffffffffffffffffffffffffffffffffff167f17307eab39ab6107e8899845ad3d59bd9653f200f220920489ca2b5937696c318360405161154f9190611e04565b60405180910390a3505050565b600073ffffffffffffffffffffffffffffffffffffffff168473ffffffffffffffffffffffffffffffffffffffff16036115cb576040517f08c379a00000000000000000000000000000000000000000000000000000000081526004016115c290612cfe565b60405180910390fd5b60006115d5610dbb565b905060006115e2856117f7565b905060006115ef856117f7565b90506115ff838989858589611871565b600080600088815260200190815260200160002060008a73ffffffffffffffffffffffffffffffffffffffff1673ffffffffffffffffffffffffffffffffffffffff16815260200190815260200160002054905085811015611696576040517f08c379a000000000000000000000000000000000000000000000000000000000815260040161168d90612d90565b60405180910390fd5b85810360008089815260200190815260200160002060008b73ffffffffffffffffffffffffffffffffffffffff1673ffffffffffffffffffffffffffffffffffffffff168152602001908152602001600020819055508560008089815260200190815260200160002060008a73ffffffffffffffffffffffffffffffffffffffff1673ffffffffffffffffffffffffffffffffffffffff168152602001908152602001600020600082825461174b9190612b9d565b925050819055508773ffffffffffffffffffffffffffffffffffffffff168973ffffffffffffffffffffffffffffffffffffffff168573ffffffffffffffffffffffffffffffffffffffff167fc3d58168c5ae7397731d063d5bbf3d657854427343f4c083240f7aacaa2d0f628a8a6040516117c8929190612bd1565b60405180910390a46117de848a8a86868a611879565b6117ec848a8a8a8a8a611881565b505050505050505050565b60606000600167ffffffffffffffff81111561181657611815611f6a565b5b6040519080825280602002602001820160405280156118445781602001602082028036833780820191505090505b509050828160008151811061185c5761185b612967565b5b60200260200101818152505080915050919050565b505050505050565b505050505050565b6118a08473ffffffffffffffffffffffffffffffffffffffff16611c2f565b15611a50578373ffffffffffffffffffffffffffffffffffffffff1663f23a6e6187878686866040518663ffffffff1660e01b81526004016118e6959493929190612ff2565b6020604051808303816000875af192505050801561192257506040513d601f19601f8201168201806040525081019061191f9190613061565b60015b6119c75761192e61309b565b806308c379a00361198a57506119426130bd565b8061194d575061198c565b806040517f08c379a00000000000000000000000000000000000000000000000000000000081526004016119819190611edc565b60405180910390fd5b505b6040517f08c379a00000000000000000000000000000000000000000000000000000000081526004016119be906131bf565b60405180910390fd5b63f23a6e6160e01b7bffffffffffffffffffffffffffffffffffffffffffffffffffffffff1916817bffffffffffffffffffffffffffffffffffffffffffffffffffffffff191614611a4e576040517f08c379a0000000000000000000000000000000000000000000000000000000008152600401611a4590613251565b60405180910390fd5b505b505050505050565b611a778473ffffffffffffffffffffffffffffffffffffffff16611c2f565b15611c27578373ffffffffffffffffffffffffffffffffffffffff1663bc197c8187878686866040518663ffffffff1660e01b8152600401611abd959493929190613271565b6020604051808303816000875af1925050508015611af957506040513d601f19601f82011682018060405250810190611af69190613061565b60015b611b9e57611b0561309b565b806308c379a003611b615750611b196130bd565b80611b245750611b63565b806040517f08c379a0000000000000000000000000000000000000000000000000000000008152600401611b589190611edc565b60405180910390fd5b505b6040517f08c379a0000000000000000000000000000000000000000000000000000000008152600401611b95906131bf565b60405180910390fd5b63bc197c8160e01b7bffffffffffffffffffffffffffffffffffffffffffffffffffffffff1916817bffffffffffffffffffffffffffffffffffffffffffffffffffffffff191614611c25576040517f08c379a0000000000000000000000000000000000000000000000000000000008152600401611c1c90613251565b60405180910390fd5b505b505050505050565b6000808273ffffffffffffffffffffffffffffffffffffffff163b119050919050565b6000604051905090565b600080fd5b600080fd5b600073ffffffffffffffffffffffffffffffffffffffff82169050919050565b6000611c9182611c66565b9050919050565b611ca181611c86565b8114611cac57600080fd5b50565b600081359050611cbe81611c98565b92915050565b6000819050919050565b611cd781611cc4565b8114611ce257600080fd5b50565b600081359050611cf481611cce565b92915050565b60008060408385031215611d1157611d10611c5c565b5b6000611d1f85828601611caf565b9250506020611d3085828601611ce5565b9150509250929050565b611d4381611cc4565b82525050565b6000602082019050611d5e6000830184611d3a565b92915050565b60007fffffffff0000000000000000000000000000000000000000000000000000000082169050919050565b611d9981611d64565b8114611da457600080fd5b50565b600081359050611db681611d90565b92915050565b600060208284031215611dd257611dd1611c5c565b5b6000611de084828501611da7565b91505092915050565b60008115159050919050565b611dfe81611de9565b82525050565b6000602082019050611e196000830184611df5565b92915050565b600060208284031215611e3557611e34611c5c565b5b6000611e4384828501611ce5565b91505092915050565b600081519050919050565b600082825260208201905092915050565b60005b83811015611e86578082015181840152602081019050611e6b565b60008484015250505050565b6000601f19601f8301169050919050565b6000611eae82611e4c565b611eb88185611e57565b9350611ec8818560208601611e68565b611ed181611e92565b840191505092915050565b60006020820190508181036000830152611ef68184611ea3565b905092915050565b60008060008060808587031215611f1857611f17611c5c565b5b6000611f2687828801611caf565b9450506020611f3787828801611ce5565b9350506040611f4887828801611ce5565b9250506060611f5987828801611ce5565b91505092959194509250565b600080fd5b7f4e487b7100000000000000000000000000000000000000000000000000000000600052604160045260246000fd5b611fa282611e92565b810181811067ffffffffffffffff82111715611fc157611fc0611f6a565b5b80604052505050565b6000611fd4611c52565b9050611fe08282611f99565b919050565b600067ffffffffffffffff82111561200057611fff611f6a565b5b602082029050602081019050919050565b600080fd5b600061202961202484611fe5565b611fca565b9050808382526020820190506020840283018581111561204c5761204b612011565b5b835b8181101561207557806120618882611ce5565b84526020840193505060208101905061204e565b5050509392505050565b600082601f83011261209457612093611f65565b5b81356120a4848260208601612016565b91505092915050565b600080fd5b600067ffffffffffffffff8211156120cd576120cc611f6a565b5b6120d682611e92565b9050602081019050919050565b82818337600083830152505050565b6000612105612100846120b2565b611fca565b905082815260208101848484011115612121576121206120ad565b5b61212c8482856120e3565b509392505050565b600082601f83011261214957612148611f65565b5b81356121598482602086016120f2565b91505092915050565b600080600080600060a0868803121561217e5761217d611c5c565b5b600061218c88828901611caf565b955050602061219d88828901611caf565b945050604086013567ffffffffffffffff8111156121be576121bd611c61565b5b6121ca8882890161207f565b935050606086013567ffffffffffffffff8111156121eb576121ea611c61565b5b6121f78882890161207f565b925050608086013567ffffffffffffffff81111561221857612217611c61565b5b61222488828901612134565b9150509295509295909350565b60008060006060848603121561224a57612249611c5c565b5b600061225886828701611caf565b935050602061226986828701611ce5565b925050604061227a86828701611ce5565b9150509250925092565b600067ffffffffffffffff82111561229f5761229e611f6a565b5b602082029050602081019050919050565b60006122c36122be84612284565b611fca565b905080838252602082019050602084028301858111156122e6576122e5612011565b5b835b8181101561230f57806122fb8882611caf565b8452602084019350506020810190506122e8565b5050509392505050565b600082601f83011261232e5761232d611f65565b5b813561233e8482602086016122b0565b91505092915050565b6000806040838503121561235e5761235d611c5c565b5b600083013567ffffffffffffffff81111561237c5761237b611c61565b5b61238885828601612319565b925050602083013567ffffffffffffffff8111156123a9576123a8611c61565b5b6123b58582860161207f565b9150509250929050565b600081519050919050565b600082825260208201905092915050565b6000819050602082019050919050565b6123f481611cc4565b82525050565b600061240683836123eb565b60208301905092915050565b6000602082019050919050565b600061242a826123bf565b61243481856123ca565b935061243f836123db565b8060005b8381101561247057815161245788826123fa565b975061246283612412565b925050600181019050612443565b5085935050505092915050565b60006020820190508181036000830152612497818461241f565b905092915050565b6124a881611c86565b82525050565b60006020820190506124c3600083018461249f565b92915050565b6124d281611de9565b81146124dd57600080fd5b50565b6000813590506124ef816124c9565b92915050565b6000806040838503121561250c5761250b611c5c565b5b600061251a85828601611caf565b925050602061252b858286016124e0565b9150509250929050565b6000806040838503121561254c5761254b611c5c565b5b600061255a85828601611caf565b925050602061256b85828601611caf565b9150509250929050565b6000806040838503121561258c5761258b611c5c565b5b600061259a85828601611ce5565b92505060206125ab85828601611ce5565b9150509250929050565b600080600080600060a086880312156125d1576125d0611c5c565b5b60006125df88828901611caf565b95505060206125f088828901611caf565b945050604061260188828901611ce5565b935050606061261288828901611ce5565b925050608086013567ffffffffffffffff81111561263357612632611c61565b5b61263f88828901612134565b9150509295509295909350565b60006020828403121561266257612661611c5c565b5b600061267084828501611caf565b91505092915050565b7f455243313135353a2061646472657373207a65726f206973206e6f742061207660008201527f616c6964206f776e657200000000000000000000000000000000000000000000602082015250565b60006126d5602a83611e57565b91506126e082612679565b604082019050919050565b60006020820190508181036000830152612704816126c8565b9050919050565b7f4e487b7100000000000000000000000000000000000000000000000000000000600052602260045260246000fd5b6000600282049050600182168061275257607f821691505b6020821081036127655761276461270b565b5b50919050565b7f496e76616c696420726563697069656e74000000000000000000000000000000600082015250565b60006127a1601183611e57565b91506127ac8261276b565b602082019050919050565b600060208201905081810360008301526127d081612794565b9050919050565b7f457870697279206d757374206265206675747572650000000000000000000000600082015250565b600061280d601583611e57565b9150612818826127d7565b602082019050919050565b6000602082019050818103600083015261283c81612800565b9050919050565b7f455243313135353a2063616c6c6572206973206e6f7420746f6b656e206f776e60008201527f6572206f7220617070726f766564000000000000000000000000000000000000602082015250565b600061289f602e83611e57565b91506128aa82612843565b604082019050919050565b600060208201905081810360008301526128ce81612892565b9050919050565b7f455243313135353a206163636f756e747320616e6420696473206c656e67746860008201527f206d69736d617463680000000000000000000000000000000000000000000000602082015250565b6000612931602983611e57565b915061293c826128d5565b604082019050919050565b6000602082019050818103600083015261296081612924565b9050919050565b7f4e487b7100000000000000000000000000000000000000000000000000000000600052603260045260246000fd5b7f4e487b7100000000000000000000000000000000000000000000000000000000600052601160045260246000fd5b60006129d082611cc4565b91507fffffffffffffffffffffffffffffffffffffffffffffffffffffffffffffffff8203612a0257612a01612996565b5b600182019050919050565b7f4f776e61626c653a206e6577206f776e657220697320746865207a65726f206160008201527f6464726573730000000000000000000000000000000000000000000000000000602082015250565b6000612a69602683611e57565b9150612a7482612a0d565b604082019050919050565b60006020820190508181036000830152612a9881612a5c565b9050919050565b7f4f776e61626c653a2063616c6c6572206973206e6f7420746865206f776e6572600082015250565b6000612ad5602083611e57565b9150612ae082612a9f565b602082019050919050565b60006020820190508181036000830152612b0481612ac8565b9050919050565b7f455243313135353a206d696e7420746f20746865207a65726f2061646472657360008201527f7300000000000000000000000000000000000000000000000000000000000000602082015250565b6000612b67602183611e57565b9150612b7282612b0b565b604082019050919050565b60006020820190508181036000830152612b9681612b5a565b9050919050565b6000612ba882611cc4565b9150612bb383611cc4565b9250828201905080821115612bcb57612bca612996565b5b92915050565b6000604082019050612be66000830185611d3a565b612bf36020830184611d3a565b9392505050565b7f455243313135353a2069647320616e6420616d6f756e7473206c656e6774682060008201527f6d69736d61746368000000000000000000000000000000000000000000000000602082015250565b6000612c56602883611e57565b9150612c6182612bfa565b604082019050919050565b60006020820190508181036000830152612c8581612c49565b9050919050565b7f455243313135353a207472616e7366657220746f20746865207a65726f20616460008201527f6472657373000000000000000000000000000000000000000000000000000000602082015250565b6000612ce8602583611e57565b9150612cf382612c8c565b604082019050919050565b60006020820190508181036000830152612d1781612cdb565b9050919050565b7f455243313135353a20696e73756666696369656e742062616c616e636520666f60008201527f72207472616e7366657200000000000000000000000000000000000000000000602082015250565b6000612d7a602a83611e57565b9150612d8582612d1e565b604082019050919050565b60006020820190508181036000830152612da981612d6d565b9050919050565b60006040820190508181036000830152612dca818561241f565b90508181036020830152612dde818461241f565b90509392505050565b7f455243313135353a206275726e2066726f6d20746865207a65726f206164647260008201527f6573730000000000000000000000000000000000000000000000000000000000602082015250565b6000612e43602383611e57565b9150612e4e82612de7565b604082019050919050565b60006020820190508181036000830152612e7281612e36565b9050919050565b7f455243313135353a206275726e20616d6f756e7420657863656564732062616c60008201527f616e636500000000000000000000000000000000000000000000000000000000602082015250565b6000612ed5602483611e57565b9150612ee082612e79565b604082019050919050565b60006020820190508181036000830152612f0481612ec8565b9050919050565b7f455243313135353a2073657474696e6720617070726f76616c2073746174757360008201527f20666f722073656c660000000000000000000000000000000000000000000000602082015250565b6000612f67602983611e57565b9150612f7282612f0b565b604082019050919050565b60006020820190508181036000830152612f9681612f5a565b9050919050565b600081519050919050565b600082825260208201905092915050565b6000612fc482612f9d565b612fce8185612fa8565b9350612fde818560208601611e68565b612fe781611e92565b840191505092915050565b600060a082019050613007600083018861249f565b613014602083018761249f565b6130216040830186611d3a565b61302e6060830185611d3a565b81810360808301526130408184612fb9565b90509695505050505050565b60008151905061305b81611d90565b92915050565b60006020828403121561307757613076611c5c565b5b60006130858482850161304c565b91505092915050565b60008160e01c9050919050565b600060033d11156130ba5760046000803e6130b760005161308e565b90505b90565b600060443d1061314a576130cf611c52565b60043d036004823e80513d602482011167ffffffffffffffff821117156130f757505061314a565b808201805167ffffffffffffffff811115613115575050505061314a565b80602083010160043d03850181111561313257505050505061314a565b61314182602001850186611f99565b82955050505050505b90565b7f455243313135353a207472616e7366657220746f206e6f6e2d4552433131353560008201527f526563656976657220696d706c656d656e746572000000000000000000000000602082015250565b60006131a9603483611e57565b91506131b48261314d565b604082019050919050565b600060208201905081810360008301526131d88161319c565b9050919050565b7f455243313135353a204552433131353552656365697665722072656a6563746560008201527f6420746f6b656e73000000000000000000000000000000000000000000000000602082015250565b600061323b602883611e57565b9150613246826131df565b604082019050919050565b6000602082019050818103600083015261326a8161322e565b9050919050565b600060a082019050613286600083018861249f565b613293602083018761249f565b81810360408301526132a5818661241f565b905081810360608301526132b9818561241f565b905081810360808301526132cd8184612fb9565b9050969550505050505056fea2646970667358221220f6cde65b3afc1b8c61eb2ec4f0dfdbe18b424426f571c2c41cedc1ab7a06508664736f6c63430008130033",
  "linkReferences": {},
  "deployedLinkReferences": {}
}